{
  "_format": "hh-sol-artifact-1",
  "contractName": "TokenFactory",
  "sourceName": "contracts/TokenFactory.sol",
  "abi": [
    {
      "inputs": [],
      "stateMutability": "nonpayable",
      "type": "constructor"
    },
    {
      "anonymous": false,
      "inputs": [
        {
          "indexed": true,
          "internalType": "address",
          "name": "tokenAddress",
          "type": "address"
        },
        {
          "indexed": true,
          "internalType": "address",
          "name": "owner",
          "type": "address"
        },
        {
          "indexed": false,
          "internalType": "uint256",
          "name": "initialSupply",
          "type": "uint256"
        },
        {
          "indexed": false,
          "internalType": "string",
          "name": "name",
          "type": "string"
        },
        {
          "indexed": false,
          "internalType": "string",
          "name": "symbol",
          "type": "string"
        }
      ],
      "name": "TokenCreated",
      "type": "event"
    },
    {
      "inputs": [
        {
          "internalType": "uint256",
          "name": "initialSupply",
          "type": "uint256"
        },
        {
          "internalType": "string",
          "name": "name",
          "type": "string"
        },
        {
          "internalType": "string",
          "name": "symbol",
          "type": "string"
        }
      ],
      "name": "createToken",
      "outputs": [
        {
          "internalType": "address",
          "name": "",
          "type": "address"
        }
      ],
      "stateMutability": "nonpayable",
      "type": "function"
    }
  ],
  "bytecode": "0x6080604052348015600f57600080fd5b50613fdb8061001f6000396000f3fe608060405234801561001057600080fd5b506004361061002b5760003560e01c8063b1037e7814610030575b600080fd5b61004a60048036038101906100459190610387565b610060565b6040516100579190610453565b60405180910390f35b60008033858585604051610073906101ea565b61008094939291906104fc565b604051809103906000f08015801561009c573d6000803e3d6000fd5b509050600060405180606001604052808373ffffffffffffffffffffffffffffffffffffffff168152602001868152602001858152509050600081908060018154018082558091505060019003906000526020600020906003020160009091909190915060008201518160000160006101000a81548173ffffffffffffffffffffffffffffffffffffffff021916908373ffffffffffffffffffffffffffffffffffffffff160217905550602082015181600101908161015c919061075b565b506040820151816002019081610172919061075b565b5050503373ffffffffffffffffffffffffffffffffffffffff168273ffffffffffffffffffffffffffffffffffffffff167f75c1f35492cd2bcb2820d5ff2434b9dc6d19432975f20761140109f0844a7b8a8888886040516101d69392919061082d565b60405180910390a381925050509392505050565b6137338061087383390190565b6000604051905090565b600080fd5b600080fd5b6000819050919050565b61021e8161020b565b811461022957600080fd5b50565b60008135905061023b81610215565b92915050565b600080fd5b600080fd5b6000601f19601f8301169050919050565b7f4e487b7100000000000000000000000000000000000000000000000000000000600052604160045260246000fd5b6102948261024b565b810181811067ffffffffffffffff821117156102b3576102b261025c565b5b80604052505050565b60006102c66101f7565b90506102d2828261028b565b919050565b600067ffffffffffffffff8211156102f2576102f161025c565b5b6102fb8261024b565b9050602081019050919050565b82818337600083830152505050565b600061032a610325846102d7565b6102bc565b90508281526020810184848401111561034657610345610246565b5b610351848285610308565b509392505050565b600082601f83011261036e5761036d610241565b5b813561037e848260208601610317565b91505092915050565b6000806000606084860312156103a05761039f610201565b5b60006103ae8682870161022c565b935050602084013567ffffffffffffffff8111156103cf576103ce610206565b5b6103db86828701610359565b925050604084013567ffffffffffffffff8111156103fc576103fb610206565b5b61040886828701610359565b9150509250925092565b600073ffffffffffffffffffffffffffffffffffffffff82169050919050565b600061043d82610412565b9050919050565b61044d81610432565b82525050565b60006020820190506104686000830184610444565b92915050565b6104778161020b565b82525050565b600081519050919050565b600082825260208201905092915050565b60005b838110156104b757808201518184015260208101905061049c565b60008484015250505050565b60006104ce8261047d565b6104d88185610488565b93506104e8818560208601610499565b6104f18161024b565b840191505092915050565b60006080820190506105116000830187610444565b61051e602083018661046e565b818103604083015261053081856104c3565b9050818103606083015261054481846104c3565b905095945050505050565b7f4e487b7100000000000000000000000000000000000000000000000000000000600052602260045260246000fd5b6000600282049050600182168061059657607f821691505b6020821081036105a9576105a861054f565b5b50919050565b60008190508160005260206000209050919050565b60006020601f8301049050919050565b600082821b905092915050565b6000600883026106117fffffffffffffffffffffffffffffffffffffffffffffffffffffffffffffffff826105d4565b61061b86836105d4565b95508019841693508086168417925050509392505050565b6000819050919050565b600061065861065361064e8461020b565b610633565b61020b565b9050919050565b6000819050919050565b6106728361063d565b61068661067e8261065f565b8484546105e1565b825550505050565b600090565b61069b61068e565b6106a6818484610669565b505050565b5b818110156106ca576106bf600082610693565b6001810190506106ac565b5050565b601f82111561070f576106e0816105af565b6106e9846105c4565b810160208510156106f8578190505b61070c610704856105c4565b8301826106ab565b50505b505050565b600082821c905092915050565b600061073260001984600802610714565b1980831691505092915050565b600061074b8383610721565b9150826002028217905092915050565b6107648261047d565b67ffffffffffffffff81111561077d5761077c61025c565b5b610787825461057e565b6107928282856106ce565b600060209050601f8311600181146107c557600084156107b3578287015190505b6107bd858261073f565b865550610825565b601f1984166107d3866105af565b60005b828110156107fb578489015182556001820191506020850194506020810190506107d6565b868310156108185784890151610814601f891682610721565b8355505b6001600288020188555050505b505050505050565b6000606082019050610842600083018661046e565b818103602083015261085481856104c3565b9050818103604083015261086881846104c3565b905094935050505056fe61016060405234801561001157600080fd5b50604051613733380380613733833981810160405281019061003391906108d1565b6040518060400160405280600581526020017f546f6b656e000000000000000000000000000000000000000000000000000000815250806040518060400160405280600181526020017f310000000000000000000000000000000000000000000000000000000000000081525086858581600390816100b29190610b87565b5080600490816100c29190610b87565b505050600073ffffffffffffffffffffffffffffffffffffffff168173ffffffffffffffffffffffffffffffffffffffff16036101375760006040517f1e4fbdf700000000000000000000000000000000000000000000000000000000815260040161012e9190610c68565b60405180910390fd5b6101468161022f60201b60201c565b5061015b6006836102f560201b90919060201c565b61012081815250506101776007826102f560201b90919060201c565b6101408181525050818051906020012060e08181525050808051906020012061010081815250504660a081815250506101b461034560201b60201c565b608081815250503073ffffffffffffffffffffffffffffffffffffffff1660c08173ffffffffffffffffffffffffffffffffffffffff1681525050505050610226306102046103a060201b60201c565b600a6102109190610df2565b8561021b9190610e3d565b6103a960201b60201c565b50505050611083565b6000600560009054906101000a900473ffffffffffffffffffffffffffffffffffffffff16905081600560006101000a81548173ffffffffffffffffffffffffffffffffffffffff021916908373ffffffffffffffffffffffffffffffffffffffff1602179055508173ffffffffffffffffffffffffffffffffffffffff168173ffffffffffffffffffffffffffffffffffffffff167f8be0079c531659141344cd1fd0a4f28419497f9722a3daafe3b4186f6b6457e060405160405180910390a35050565b6000602083511015610317576103108361043160201b60201c565b905061033f565b826103278361049960201b60201c565b60000190816103369190610b87565b5060ff60001b90505b92915050565b60007f8b73c3c69bb8fe3d512ecc4cf759cc79239f7b179b0ffacaa9a75d522b39400f60e051610100514630604051602001610385959493929190610ea7565b60405160208183030381529060405280519060200120905090565b60006012905090565b600073ffffffffffffffffffffffffffffffffffffffff168273ffffffffffffffffffffffffffffffffffffffff160361041b5760006040517fec442f050000000000000000000000000000000000000000000000000000000081526004016104129190610c68565b60405180910390fd5b61042d600083836104a360201b60201c565b5050565b600080829050601f8151111561047e57826040517f305a27a90000000000000000000000000000000000000000000000000000000081526004016104759190610f44565b60405180910390fd5b80518161048a90610f96565b60001c1760001b915050919050565b6000819050919050565b600073ffffffffffffffffffffffffffffffffffffffff168373ffffffffffffffffffffffffffffffffffffffff16036104f55780600260008282546104e99190610ffd565b925050819055506105c8565b60008060008573ffffffffffffffffffffffffffffffffffffffff1673ffffffffffffffffffffffffffffffffffffffff16815260200190815260200160002054905081811015610581578381836040517fe450d38c00000000000000000000000000000000000000000000000000000000815260040161057893929190611031565b60405180910390fd5b8181036000808673ffffffffffffffffffffffffffffffffffffffff1673ffffffffffffffffffffffffffffffffffffffff16815260200190815260200160002081905550505b600073ffffffffffffffffffffffffffffffffffffffff168273ffffffffffffffffffffffffffffffffffffffff1603610611578060026000828254039250508190555061065e565b806000808473ffffffffffffffffffffffffffffffffffffffff1673ffffffffffffffffffffffffffffffffffffffff168152602001908152602001600020600082825401925050819055505b8173ffffffffffffffffffffffffffffffffffffffff168373ffffffffffffffffffffffffffffffffffffffff167fddf252ad1be2c89b69c2b068fc378daa952ba7f163c4a11628f55a4df523b3ef836040516106bb9190611068565b60405180910390a3505050565b6000604051905090565b600080fd5b600080fd5b600073ffffffffffffffffffffffffffffffffffffffff82169050919050565b6000610707826106dc565b9050919050565b610717816106fc565b811461072257600080fd5b50565b6000815190506107348161070e565b92915050565b6000819050919050565b61074d8161073a565b811461075857600080fd5b50565b60008151905061076a81610744565b92915050565b600080fd5b600080fd5b6000601f19601f8301169050919050565b7f4e487b7100000000000000000000000000000000000000000000000000000000600052604160045260246000fd5b6107c38261077a565b810181811067ffffffffffffffff821117156107e2576107e161078b565b5b80604052505050565b60006107f56106c8565b905061080182826107ba565b919050565b600067ffffffffffffffff8211156108215761082061078b565b5b61082a8261077a565b9050602081019050919050565b60005b8381101561085557808201518184015260208101905061083a565b60008484015250505050565b600061087461086f84610806565b6107eb565b9050828152602081018484840111156108905761088f610775565b5b61089b848285610837565b509392505050565b600082601f8301126108b8576108b7610770565b5b81516108c8848260208601610861565b91505092915050565b600080600080608085870312156108eb576108ea6106d2565b5b60006108f987828801610725565b945050602061090a8782880161075b565b935050604085015167ffffffffffffffff81111561092b5761092a6106d7565b5b610937878288016108a3565b925050606085015167ffffffffffffffff811115610958576109576106d7565b5b610964878288016108a3565b91505092959194509250565b600081519050919050565b7f4e487b7100000000000000000000000000000000000000000000000000000000600052602260045260246000fd5b600060028204905060018216806109c257607f821691505b6020821081036109d5576109d461097b565b5b50919050565b60008190508160005260206000209050919050565b60006020601f8301049050919050565b600082821b905092915050565b600060088302610a3d7fffffffffffffffffffffffffffffffffffffffffffffffffffffffffffffffff82610a00565b610a478683610a00565b95508019841693508086168417925050509392505050565b6000819050919050565b6000610a84610a7f610a7a8461073a565b610a5f565b61073a565b9050919050565b6000819050919050565b610a9e83610a69565b610ab2610aaa82610a8b565b848454610a0d565b825550505050565b600090565b610ac7610aba565b610ad2818484610a95565b505050565b5b81811015610af657610aeb600082610abf565b600181019050610ad8565b5050565b601f821115610b3b57610b0c816109db565b610b15846109f0565b81016020851015610b24578190505b610b38610b30856109f0565b830182610ad7565b50505b505050565b600082821c905092915050565b6000610b5e60001984600802610b40565b1980831691505092915050565b6000610b778383610b4d565b9150826002028217905092915050565b610b9082610970565b67ffffffffffffffff811115610ba957610ba861078b565b5b610bb382546109aa565b610bbe828285610afa565b600060209050601f831160018114610bf15760008415610bdf578287015190505b610be98582610b6b565b865550610c51565b601f198416610bff866109db565b60005b82811015610c2757848901518255600182019150602085019450602081019050610c02565b86831015610c445784890151610c40601f891682610b4d565b8355505b6001600288020188555050505b505050505050565b610c62816106fc565b82525050565b6000602082019050610c7d6000830184610c59565b92915050565b7f4e487b7100000000000000000000000000000000000000000000000000000000600052601160045260246000fd5b60008160011c9050919050565b6000808291508390505b6001851115610d0957808604811115610ce557610ce4610c83565b5b6001851615610cf45780820291505b8081029050610d0285610cb2565b9450610cc9565b94509492505050565b600082610d225760019050610dde565b81610d305760009050610dde565b8160018114610d465760028114610d5057610d7f565b6001915050610dde565b60ff841115610d6257610d61610c83565b5b8360020a915084821115610d7957610d78610c83565b5b50610dde565b5060208310610133831016604e8410600b8410161715610db45782820a905083811115610daf57610dae610c83565b5b610dde565b610dc18484846001610cbf565b92509050818404811115610dd857610dd7610c83565b5b81810290505b9392505050565b600060ff82169050919050565b6000610dfd8261073a565b9150610e0883610de5565b9250610e357fffffffffffffffffffffffffffffffffffffffffffffffffffffffffffffffff8484610d12565b905092915050565b6000610e488261073a565b9150610e538361073a565b9250828202610e618161073a565b91508282048414831517610e7857610e77610c83565b5b5092915050565b6000819050919050565b610e9281610e7f565b82525050565b610ea18161073a565b82525050565b600060a082019050610ebc6000830188610e89565b610ec96020830187610e89565b610ed66040830186610e89565b610ee36060830185610e98565b610ef06080830184610c59565b9695505050505050565b600082825260208201905092915050565b6000610f1682610970565b610f208185610efa565b9350610f30818560208601610837565b610f398161077a565b840191505092915050565b60006020820190508181036000830152610f5e8184610f0b565b905092915050565b600081519050919050565b6000819050602082019050919050565b6000610f8d8251610e7f565b80915050919050565b6000610fa182610f66565b82610fab84610f71565b9050610fb681610f81565b92506020821015610ff657610ff17fffffffffffffffffffffffffffffffffffffffffffffffffffffffffffffffff83602003600802610a00565b831692505b5050919050565b60006110088261073a565b91506110138361073a565b925082820190508082111561102b5761102a610c83565b5b92915050565b60006060820190506110466000830186610c59565b6110536020830185610e98565b6110606040830184610e98565b949350505050565b600060208201905061107d6000830184610e98565b92915050565b60805160a05160c05160e0516101005161012051610140516126566110dd6000396000611236015260006111fb0152600061174b0152600061172a01526000610f2701526000610f7d01526000610fa601526126566000f3fe608060405234801561001057600080fd5b506004361061012c5760003560e01c80637ecebe00116100ad578063a694fc3a11610071578063a694fc3a14610329578063a9059cbb14610345578063d505accf14610375578063dd62ed3e14610391578063f2fde38b146103c15761012c565b80637ecebe001461026957806384b0196e146102995780638da5cb5b146102bd57806395d89b41146102db57806398807d84146102f95761012c565b8063313ce567116100f4578063313ce567146101e95780633644e515146102075780634e71d92d1461022557806370a082311461022f578063715018a61461025f5761012c565b806306fdde0314610131578063095ea7b31461014f57806318160ddd1461017f57806323b872dd1461019d5780632e17de78146101cd575b600080fd5b6101396103dd565b6040516101469190611c38565b60405180910390f35b61016960048036038101906101649190611cf3565b61046f565b6040516101769190611d4e565b60405180910390f35b610187610492565b6040516101949190611d78565b60405180910390f35b6101b760048036038101906101b29190611d93565b61049c565b6040516101c49190611d4e565b60405180910390f35b6101e760048036038101906101e29190611de6565b6104cb565b005b6101f16105fc565b6040516101fe9190611e2f565b60405180910390f35b61020f610605565b60405161021c9190611e63565b60405180910390f35b61022d610614565b005b61024960048036038101906102449190611e7e565b610795565b6040516102569190611d78565b60405180910390f35b6102676107dd565b005b610283600480360381019061027e9190611e7e565b6107f1565b6040516102909190611d78565b60405180910390f35b6102a1610803565b6040516102b49796959493929190611fb3565b60405180910390f35b6102c56108ad565b6040516102d29190612037565b60405180910390f35b6102e36108d7565b6040516102f09190611c38565b60405180910390f35b610313600480360381019061030e9190611e7e565b610969565b6040516103209190611d78565b60405180910390f35b610343600480360381019061033e9190611de6565b610981565b005b61035f600480360381019061035a9190611cf3565b610b08565b60405161036c9190611d4e565b60405180910390f35b61038f600480360381019061038a91906120aa565b610b2b565b005b6103ab60048036038101906103a6919061214c565b610c73565b6040516103b89190611d78565b60405180910390f35b6103db60048036038101906103d69190611e7e565b610cfa565b005b6060600380546103ec906121bb565b80601f0160208091040260200160405190810160405280929190818152602001828054610418906121bb565b80156104655780601f1061043a57610100808354040283529160200191610465565b820191906000526020600020905b81548152906001019060200180831161044857829003601f168201915b5050505050905090565b60008061047a610d80565b9050610487818585610d88565b600191505092915050565b6000600254905090565b6000806104a7610d80565b90506104b4858285610d9a565b6104bf858585610e2f565b60019150509392505050565b6000811161050e576040517f08c379a000000000000000000000000000000000000000000000000000000000815260040161050590612238565b60405180910390fd5b80600960003373ffffffffffffffffffffffffffffffffffffffff1673ffffffffffffffffffffffffffffffffffffffff168152602001908152602001600020541015610590576040517f08c379a0000000000000000000000000000000000000000000000000000000008152600401610587906122a4565b60405180910390fd5b610598610614565b80600960003373ffffffffffffffffffffffffffffffffffffffff1673ffffffffffffffffffffffffffffffffffffffff16815260200190815260200160002060008282546105e791906122f3565b925050819055506105f9303383610e2f565b50565b60006012905090565b600061060f610f23565b905090565b6000600960003373ffffffffffffffffffffffffffffffffffffffff1673ffffffffffffffffffffffffffffffffffffffff1681526020019081526020016000205411610696576040517f08c379a000000000000000000000000000000000000000000000000000000000815260040161068d90612373565b60405180910390fd5b6000600a60003373ffffffffffffffffffffffffffffffffffffffff1673ffffffffffffffffffffffffffffffffffffffff16815260200190815260200160002054426106e391906122f3565b905060006301e1432082600960003373ffffffffffffffffffffffffffffffffffffffff1673ffffffffffffffffffffffffffffffffffffffff168152602001908152602001600020546107379190612393565b6107419190612404565b905061074d3382610fda565b42600a60003373ffffffffffffffffffffffffffffffffffffffff1673ffffffffffffffffffffffffffffffffffffffff168152602001908152602001600020819055505050565b60008060008373ffffffffffffffffffffffffffffffffffffffff1673ffffffffffffffffffffffffffffffffffffffff168152602001908152602001600020549050919050565b6107e561105c565b6107ef60006110e3565b565b60006107fc826111a9565b9050919050565b6000606080600080600060606108176111f2565b61081f61122d565b46306000801b600067ffffffffffffffff8111156108405761083f612435565b5b60405190808252806020026020018201604052801561086e5781602001602082028036833780820191505090505b507f0f00000000000000000000000000000000000000000000000000000000000000959493929190965096509650965096509650965090919293949596565b6000600560009054906101000a900473ffffffffffffffffffffffffffffffffffffffff16905090565b6060600480546108e6906121bb565b80601f0160208091040260200160405190810160405280929190818152602001828054610912906121bb565b801561095f5780601f106109345761010080835404028352916020019161095f565b820191906000526020600020905b81548152906001019060200180831161094257829003601f168201915b5050505050905090565b60096020528060005260406000206000915090505481565b600081116109c4576040517f08c379a00000000000000000000000000000000000000000000000000000000081526004016109bb90612238565b60405180910390fd5b806109ce33610795565b1015610a0f576040517f08c379a0000000000000000000000000000000000000000000000000000000008152600401610a06906122a4565b60405180910390fd5b610a1a333083610e2f565b6000600960003373ffffffffffffffffffffffffffffffffffffffff1673ffffffffffffffffffffffffffffffffffffffff168152602001908152602001600020541115610a6b57610a6a610614565b5b42600a60003373ffffffffffffffffffffffffffffffffffffffff1673ffffffffffffffffffffffffffffffffffffffff1681526020019081526020016000208190555080600960003373ffffffffffffffffffffffffffffffffffffffff1673ffffffffffffffffffffffffffffffffffffffff1681526020019081526020016000206000828254610afe9190612464565b9250508190555050565b600080610b13610d80565b9050610b20818585610e2f565b600191505092915050565b83421115610b7057836040517f62791302000000000000000000000000000000000000000000000000000000008152600401610b679190611d78565b60405180910390fd5b60007f6e71edae12b1b97f4d1f60370fef10105fa2faae0126114a169c64845d6126c9888888610b9f8c611268565b89604051602001610bb596959493929190612498565b6040516020818303038152906040528051906020012090506000610bd8826112bf565b90506000610be8828787876112d9565b90508973ffffffffffffffffffffffffffffffffffffffff168173ffffffffffffffffffffffffffffffffffffffff1614610c5c57808a6040517f4b800e46000000000000000000000000000000000000000000000000000000008152600401610c539291906124f9565b60405180910390fd5b610c678a8a8a610d88565b50505050505050505050565b6000600160008473ffffffffffffffffffffffffffffffffffffffff1673ffffffffffffffffffffffffffffffffffffffff16815260200190815260200160002060008373ffffffffffffffffffffffffffffffffffffffff1673ffffffffffffffffffffffffffffffffffffffff16815260200190815260200160002054905092915050565b610d0261105c565b600073ffffffffffffffffffffffffffffffffffffffff168173ffffffffffffffffffffffffffffffffffffffff1603610d745760006040517f1e4fbdf7000000000000000000000000000000000000000000000000000000008152600401610d6b9190612037565b60405180910390fd5b610d7d816110e3565b50565b600033905090565b610d958383836001611309565b505050565b6000610da68484610c73565b90507fffffffffffffffffffffffffffffffffffffffffffffffffffffffffffffffff811015610e295781811015610e19578281836040517ffb8f41b2000000000000000000000000000000000000000000000000000000008152600401610e1093929190612522565b60405180910390fd5b610e2884848484036000611309565b5b50505050565b600073ffffffffffffffffffffffffffffffffffffffff168373ffffffffffffffffffffffffffffffffffffffff1603610ea15760006040517f96c6fd1e000000000000000000000000000000000000000000000000000000008152600401610e989190612037565b60405180910390fd5b600073ffffffffffffffffffffffffffffffffffffffff168273ffffffffffffffffffffffffffffffffffffffff1603610f135760006040517fec442f05000000000000000000000000000000000000000000000000000000008152600401610f0a9190612037565b60405180910390fd5b610f1e8383836114e0565b505050565b60007f000000000000000000000000000000000000000000000000000000000000000073ffffffffffffffffffffffffffffffffffffffff163073ffffffffffffffffffffffffffffffffffffffff16148015610f9f57507f000000000000000000000000000000000000000000000000000000000000000046145b15610fcc577f00000000000000000000000000000000000000000000000000000000000000009050610fd7565b610fd4611705565b90505b90565b600073ffffffffffffffffffffffffffffffffffffffff168273ffffffffffffffffffffffffffffffffffffffff160361104c5760006040517fec442f050000000000000000000000000000000000000000000000000000000081526004016110439190612037565b60405180910390fd5b611058600083836114e0565b5050565b611064610d80565b73ffffffffffffffffffffffffffffffffffffffff166110826108ad565b73ffffffffffffffffffffffffffffffffffffffff16146110e1576110a5610d80565b6040517f118cdaa70000000000000000000000000000000000000000000000000000000081526004016110d89190612037565b60405180910390fd5b565b6000600560009054906101000a900473ffffffffffffffffffffffffffffffffffffffff16905081600560006101000a81548173ffffffffffffffffffffffffffffffffffffffff021916908373ffffffffffffffffffffffffffffffffffffffff1602179055508173ffffffffffffffffffffffffffffffffffffffff168173ffffffffffffffffffffffffffffffffffffffff167f8be0079c531659141344cd1fd0a4f28419497f9722a3daafe3b4186f6b6457e060405160405180910390a35050565b6000600860008373ffffffffffffffffffffffffffffffffffffffff1673ffffffffffffffffffffffffffffffffffffffff168152602001908152602001600020549050919050565b606061122860067f000000000000000000000000000000000000000000000000000000000000000061179b90919063ffffffff16565b905090565b606061126360077f000000000000000000000000000000000000000000000000000000000000000061179b90919063ffffffff16565b905090565b6000600860008373ffffffffffffffffffffffffffffffffffffffff1673ffffffffffffffffffffffffffffffffffffffff1681526020019081526020016000206000815480929190600101919050559050919050565b60006112d26112cc610f23565b8361184b565b9050919050565b6000806000806112eb8888888861188c565b9250925092506112fb8282611980565b829350505050949350505050565b600073ffffffffffffffffffffffffffffffffffffffff168473ffffffffffffffffffffffffffffffffffffffff160361137b5760006040517fe602df050000000000000000000000000000000000000000000000000000000081526004016113729190612037565b60405180910390fd5b600073ffffffffffffffffffffffffffffffffffffffff168373ffffffffffffffffffffffffffffffffffffffff16036113ed5760006040517f94280d620000000000000000000000000000000000000000000000000000000081526004016113e49190612037565b60405180910390fd5b81600160008673ffffffffffffffffffffffffffffffffffffffff1673ffffffffffffffffffffffffffffffffffffffff16815260200190815260200160002060008573ffffffffffffffffffffffffffffffffffffffff1673ffffffffffffffffffffffffffffffffffffffff1681526020019081526020016000208190555080156114da578273ffffffffffffffffffffffffffffffffffffffff168473ffffffffffffffffffffffffffffffffffffffff167f8c5be1e5ebec7d5bd14f71427d1e84f3dd0314c0f7b2291e5b200ac8c7c3b925846040516114d19190611d78565b60405180910390a35b50505050565b600073ffffffffffffffffffffffffffffffffffffffff168373ffffffffffffffffffffffffffffffffffffffff16036115325780600260008282546115269190612464565b92505081905550611605565b60008060008573ffffffffffffffffffffffffffffffffffffffff1673ffffffffffffffffffffffffffffffffffffffff168152602001908152602001600020549050818110156115be578381836040517fe450d38c0000000000000000000000000000000000000000000000000000000081526004016115b593929190612522565b60405180910390fd5b8181036000808673ffffffffffffffffffffffffffffffffffffffff1673ffffffffffffffffffffffffffffffffffffffff16815260200190815260200160002081905550505b600073ffffffffffffffffffffffffffffffffffffffff168273ffffffffffffffffffffffffffffffffffffffff160361164e578060026000828254039250508190555061169b565b806000808473ffffffffffffffffffffffffffffffffffffffff1673ffffffffffffffffffffffffffffffffffffffff168152602001908152602001600020600082825401925050819055505b8173ffffffffffffffffffffffffffffffffffffffff168373ffffffffffffffffffffffffffffffffffffffff167fddf252ad1be2c89b69c2b068fc378daa952ba7f163c4a11628f55a4df523b3ef836040516116f89190611d78565b60405180910390a3505050565b60007f8b73c3c69bb8fe3d512ecc4cf759cc79239f7b179b0ffacaa9a75d522b39400f7f00000000000000000000000000000000000000000000000000000000000000007f00000000000000000000000000000000000000000000000000000000000000004630604051602001611780959493929190612559565b60405160208183030381529060405280519060200120905090565b606060ff60001b83146117b8576117b183611ae4565b9050611845565b8180546117c4906121bb565b80601f01602080910402602001604051908101604052809291908181526020018280546117f0906121bb565b801561183d5780601f106118125761010080835404028352916020019161183d565b820191906000526020600020905b81548152906001019060200180831161182057829003601f168201915b505050505090505b92915050565b60006040517f190100000000000000000000000000000000000000000000000000000000000081528360028201528260228201526042812091505092915050565b60008060007f7fffffffffffffffffffffffffffffff5d576e7357a4501ddfe92f46681b20a08460001c11156118cc576000600385925092509250611976565b6000600188888888604051600081526020016040526040516118f194939291906125ac565b6020604051602081039080840390855afa158015611913573d6000803e3d6000fd5b505050602060405103519050600073ffffffffffffffffffffffffffffffffffffffff168173ffffffffffffffffffffffffffffffffffffffff160361196757600060016000801b93509350935050611976565b8060008060001b935093509350505b9450945094915050565b60006003811115611994576119936125f1565b5b8260038111156119a7576119a66125f1565b5b0315611ae057600160038111156119c1576119c06125f1565b5b8260038111156119d4576119d36125f1565b5b03611a0b576040517ff645eedf00000000000000000000000000000000000000000000000000000000815260040160405180910390fd5b60026003811115611a1f57611a1e6125f1565b5b826003811115611a3257611a316125f1565b5b03611a77578060001c6040517ffce698f7000000000000000000000000000000000000000000000000000000008152600401611a6e9190611d78565b60405180910390fd5b600380811115611a8a57611a896125f1565b5b826003811115611a9d57611a9c6125f1565b5b03611adf57806040517fd78bce0c000000000000000000000000000000000000000000000000000000008152600401611ad69190611e63565b60405180910390fd5b5b5050565b60606000611af183611b58565b90506000602067ffffffffffffffff811115611b1057611b0f612435565b5b6040519080825280601f01601f191660200182016040528015611b425781602001600182028036833780820191505090505b5090508181528360208201528092505050919050565b60008060ff8360001c169050601f811115611b9f576040517fb3512b0c00000000000000000000000000000000000000000000000000000000815260040160405180910390fd5b80915050919050565b600081519050919050565b600082825260208201905092915050565b60005b83811015611be2578082015181840152602081019050611bc7565b60008484015250505050565b6000601f19601f8301169050919050565b6000611c0a82611ba8565b611c148185611bb3565b9350611c24818560208601611bc4565b611c2d81611bee565b840191505092915050565b60006020820190508181036000830152611c528184611bff565b905092915050565b600080fd5b600073ffffffffffffffffffffffffffffffffffffffff82169050919050565b6000611c8a82611c5f565b9050919050565b611c9a81611c7f565b8114611ca557600080fd5b50565b600081359050611cb781611c91565b92915050565b6000819050919050565b611cd081611cbd565b8114611cdb57600080fd5b50565b600081359050611ced81611cc7565b92915050565b60008060408385031215611d0a57611d09611c5a565b5b6000611d1885828601611ca8565b9250506020611d2985828601611cde565b9150509250929050565b60008115159050919050565b611d4881611d33565b82525050565b6000602082019050611d636000830184611d3f565b92915050565b611d7281611cbd565b82525050565b6000602082019050611d8d6000830184611d69565b92915050565b600080600060608486031215611dac57611dab611c5a565b5b6000611dba86828701611ca8565b9350506020611dcb86828701611ca8565b9250506040611ddc86828701611cde565b9150509250925092565b600060208284031215611dfc57611dfb611c5a565b5b6000611e0a84828501611cde565b91505092915050565b600060ff82169050919050565b611e2981611e13565b82525050565b6000602082019050611e446000830184611e20565b92915050565b6000819050919050565b611e5d81611e4a565b82525050565b6000602082019050611e786000830184611e54565b92915050565b600060208284031215611e9457611e93611c5a565b5b6000611ea284828501611ca8565b91505092915050565b60007fff0000000000000000000000000000000000000000000000000000000000000082169050919050565b611ee081611eab565b82525050565b611eef81611c7f565b82525050565b600081519050919050565b600082825260208201905092915050565b6000819050602082019050919050565b611f2a81611cbd565b82525050565b6000611f3c8383611f21565b60208301905092915050565b6000602082019050919050565b6000611f6082611ef5565b611f6a8185611f00565b9350611f7583611f11565b8060005b83811015611fa6578151611f8d8882611f30565b9750611f9883611f48565b925050600181019050611f79565b5085935050505092915050565b600060e082019050611fc8600083018a611ed7565b8181036020830152611fda8189611bff565b90508181036040830152611fee8188611bff565b9050611ffd6060830187611d69565b61200a6080830186611ee6565b61201760a0830185611e54565b81810360c08301526120298184611f55565b905098975050505050505050565b600060208201905061204c6000830184611ee6565b92915050565b61205b81611e13565b811461206657600080fd5b50565b60008135905061207881612052565b92915050565b61208781611e4a565b811461209257600080fd5b50565b6000813590506120a48161207e565b92915050565b600080600080600080600060e0888a0312156120c9576120c8611c5a565b5b60006120d78a828b01611ca8565b97505060206120e88a828b01611ca8565b96505060406120f98a828b01611cde565b955050606061210a8a828b01611cde565b945050608061211b8a828b01612069565b93505060a061212c8a828b01612095565b92505060c061213d8a828b01612095565b91505092959891949750929550565b6000806040838503121561216357612162611c5a565b5b600061217185828601611ca8565b925050602061218285828601611ca8565b9150509250929050565b7f4e487b7100000000000000000000000000000000000000000000000000000000600052602260045260246000fd5b600060028204905060018216806121d357607f821691505b6020821081036121e6576121e561218c565b5b50919050565b7f416d6f756e74206973203c3d3000000000000000000000000000000000000000600082015250565b6000612222600d83611bb3565b915061222d826121ec565b602082019050919050565b6000602082019050818103600083015261225181612215565b9050919050565b7f4e6f7420456e6f7567682042616c616e63650000000000000000000000000000600082015250565b600061228e601283611bb3565b915061229982612258565b602082019050919050565b600060208201905081810360008301526122bd81612281565b9050919050565b7f4e487b7100000000000000000000000000000000000000000000000000000000600052601160045260246000fd5b60006122fe82611cbd565b915061230983611cbd565b9250828203905081811115612321576123206122c4565b5b92915050565b7f7374616b6564206973203c3d3000000000000000000000000000000000000000600082015250565b600061235d600d83611bb3565b915061236882612327565b602082019050919050565b6000602082019050818103600083015261238c81612350565b9050919050565b600061239e82611cbd565b91506123a983611cbd565b92508282026123b781611cbd565b915082820484148315176123ce576123cd6122c4565b5b5092915050565b7f4e487b7100000000000000000000000000000000000000000000000000000000600052601260045260246000fd5b600061240f82611cbd565b915061241a83611cbd565b92508261242a576124296123d5565b5b828204905092915050565b7f4e487b7100000000000000000000000000000000000000000000000000000000600052604160045260246000fd5b600061246f82611cbd565b915061247a83611cbd565b9250828201905080821115612492576124916122c4565b5b92915050565b600060c0820190506124ad6000830189611e54565b6124ba6020830188611ee6565b6124c76040830187611ee6565b6124d46060830186611d69565b6124e16080830185611d69565b6124ee60a0830184611d69565b979650505050505050565b600060408201905061250e6000830185611ee6565b61251b6020830184611ee6565b9392505050565b60006060820190506125376000830186611ee6565b6125446020830185611d69565b6125516040830184611d69565b949350505050565b600060a08201905061256e6000830188611e54565b61257b6020830187611e54565b6125886040830186611e54565b6125956060830185611d69565b6125a26080830184611ee6565b9695505050505050565b60006080820190506125c16000830187611e54565b6125ce6020830186611e20565b6125db6040830185611e54565b6125e86060830184611e54565b95945050505050565b7f4e487b7100000000000000000000000000000000000000000000000000000000600052602160045260246000fdfea2646970667358221220230ebb30f3293819c6b12e1c80ff3d8e02b5a8a651ce4440e4e442ed771b3b6a64736f6c634300081c0033a2646970667358221220f3eddcb230e097fa117ba9a519c7dd3e60137026bb316a379a611c33864cef3b64736f6c634300081c0033",
  "linkReferences": {},
  "deployedLinkReferences": {}
}