{
  "_format": "hh-sol-artifact-1",
  "contractName": "TokenFactory",
  "sourceName": "contracts/TokenFactory.sol",
  "abi": [
    {
      "inputs": [],
      "stateMutability": "nonpayable",
      "type": "constructor"
    },
    {
      "anonymous": false,
      "inputs": [
        {
          "indexed": false,
          "internalType": "address",
          "name": "tokenAddress",
          "type": "address"
        },
        {
          "indexed": false,
          "internalType": "uint256",
          "name": "initialSupply",
          "type": "uint256"
        },
        {
          "indexed": false,
          "internalType": "string",
          "name": "name",
          "type": "string"
        },
        {
          "indexed": false,
          "internalType": "string",
          "name": "symbol",
          "type": "string"
        }
      ],
      "name": "TokenCreated",
      "type": "event"
    },
    {
      "inputs": [
        {
          "internalType": "uint256",
          "name": "initialSupply",
          "type": "uint256"
        },
        {
          "internalType": "string",
          "name": "name",
          "type": "string"
        },
        {
          "internalType": "string",
          "name": "symbol",
          "type": "string"
        }
      ],
      "name": "createToken",
      "outputs": [
        {
          "internalType": "address",
          "name": "",
          "type": "address"
        }
      ],
      "stateMutability": "nonpayable",
      "type": "function"
    }
  ],
  "bytecode": "0x6080604052348015600f57600080fd5b50613f768061001f6000396000f3fe608060405234801561001057600080fd5b506004361061002b5760003560e01c8063b1037e7814610030575b600080fd5b61004a6004803603810190610045919061034f565b610060565b604051610057919061041b565b60405180910390f35b60008084116100a4576040517f08c379a000000000000000000000000000000000000000000000000000000000815260040161009b906104b9565b60405180910390fd5b60008351116100e8576040517f08c379a00000000000000000000000000000000000000000000000000000000081526004016100df90610525565b60405180910390fd5b600082511161012c576040517f08c379a000000000000000000000000000000000000000000000000000000000815260040161012390610591565b60405180910390fd5b60003385858560405161013e906101b2565b61014b949392919061062e565b604051809103906000f080158015610167573d6000803e3d6000fd5b5090507f53edfda66a3856035f0da15f6cb2f2ffc8b983cace629b533137c6cd281327f58186868660405161019f949392919061062e565b60405180910390a1809150509392505050565b6138bf8061068283390190565b6000604051905090565b600080fd5b600080fd5b6000819050919050565b6101e6816101d3565b81146101f157600080fd5b50565b600081359050610203816101dd565b92915050565b600080fd5b600080fd5b6000601f19601f8301169050919050565b7f4e487b7100000000000000000000000000000000000000000000000000000000600052604160045260246000fd5b61025c82610213565b810181811067ffffffffffffffff8211171561027b5761027a610224565b5b80604052505050565b600061028e6101bf565b905061029a8282610253565b919050565b600067ffffffffffffffff8211156102ba576102b9610224565b5b6102c382610213565b9050602081019050919050565b82818337600083830152505050565b60006102f26102ed8461029f565b610284565b90508281526020810184848401111561030e5761030d61020e565b5b6103198482856102d0565b509392505050565b600082601f83011261033657610335610209565b5b81356103468482602086016102df565b91505092915050565b600080600060608486031215610368576103676101c9565b5b6000610376868287016101f4565b935050602084013567ffffffffffffffff811115610397576103966101ce565b5b6103a386828701610321565b925050604084013567ffffffffffffffff8111156103c4576103c36101ce565b5b6103d086828701610321565b9150509250925092565b600073ffffffffffffffffffffffffffffffffffffffff82169050919050565b6000610405826103da565b9050919050565b610415816103fa565b82525050565b6000602082019050610430600083018461040c565b92915050565b600082825260208201905092915050565b7f496e697469616c20737570706c79206d7573742062652067726561746572207460008201527f68616e2030000000000000000000000000000000000000000000000000000000602082015250565b60006104a3602583610436565b91506104ae82610447565b604082019050919050565b600060208201905081810360008301526104d281610496565b9050919050565b7f546f6b656e206e616d6520697320726571756972656400000000000000000000600082015250565b600061050f601683610436565b915061051a826104d9565b602082019050919050565b6000602082019050818103600083015261053e81610502565b9050919050565b7f546f6b656e2073796d626f6c2069732072657175697265640000000000000000600082015250565b600061057b601883610436565b915061058682610545565b602082019050919050565b600060208201905081810360008301526105aa8161056e565b9050919050565b6105ba816101d3565b82525050565b600081519050919050565b60005b838110156105e95780820151818401526020810190506105ce565b60008484015250505050565b6000610600826105c0565b61060a8185610436565b935061061a8185602086016105cb565b61062381610213565b840191505092915050565b6000608082019050610643600083018761040c565b61065060208301866105b1565b818103604083015261066281856105f5565b9050818103606083015261067681846105f5565b90509594505050505056fe61016060405234801561001157600080fd5b506040516138bf3803806138bf8339818101604052810190610033919061089c565b81806040518060400160405280600181526020017f3100000000000000000000000000000000000000000000000000000000000000815250868585816003908161007d9190610b52565b50806004908161008d9190610b52565b505050600073ffffffffffffffffffffffffffffffffffffffff168173ffffffffffffffffffffffffffffffffffffffff16036101025760006040517f1e4fbdf70000000000000000000000000000000000000000000000000000000081526004016100f99190610c33565b60405180910390fd5b610111816101fa60201b60201c565b506101266006836102c060201b90919060201c565b61012081815250506101426007826102c060201b90919060201c565b6101408181525050818051906020012060e08181525050808051906020012061010081815250504660a0818152505061017f61031060201b60201c565b608081815250503073ffffffffffffffffffffffffffffffffffffffff1660c08173ffffffffffffffffffffffffffffffffffffffff16815250505050506101f1306101cf61036b60201b60201c565b600a6101db9190610dbd565b856101e69190610e08565b61037460201b60201c565b5050505061104e565b6000600560009054906101000a900473ffffffffffffffffffffffffffffffffffffffff16905081600560006101000a81548173ffffffffffffffffffffffffffffffffffffffff021916908373ffffffffffffffffffffffffffffffffffffffff1602179055508173ffffffffffffffffffffffffffffffffffffffff168173ffffffffffffffffffffffffffffffffffffffff167f8be0079c531659141344cd1fd0a4f28419497f9722a3daafe3b4186f6b6457e060405160405180910390a35050565b60006020835110156102e2576102db836103fc60201b60201c565b905061030a565b826102f28361046460201b60201c565b60000190816103019190610b52565b5060ff60001b90505b92915050565b60007f8b73c3c69bb8fe3d512ecc4cf759cc79239f7b179b0ffacaa9a75d522b39400f60e051610100514630604051602001610350959493929190610e72565b60405160208183030381529060405280519060200120905090565b60006012905090565b600073ffffffffffffffffffffffffffffffffffffffff168273ffffffffffffffffffffffffffffffffffffffff16036103e65760006040517fec442f050000000000000000000000000000000000000000000000000000000081526004016103dd9190610c33565b60405180910390fd5b6103f86000838361046e60201b60201c565b5050565b600080829050601f8151111561044957826040517f305a27a90000000000000000000000000000000000000000000000000000000081526004016104409190610f0f565b60405180910390fd5b80518161045590610f61565b60001c1760001b915050919050565b6000819050919050565b600073ffffffffffffffffffffffffffffffffffffffff168373ffffffffffffffffffffffffffffffffffffffff16036104c05780600260008282546104b49190610fc8565b92505081905550610593565b60008060008573ffffffffffffffffffffffffffffffffffffffff1673ffffffffffffffffffffffffffffffffffffffff1681526020019081526020016000205490508181101561054c578381836040517fe450d38c00000000000000000000000000000000000000000000000000000000815260040161054393929190610ffc565b60405180910390fd5b8181036000808673ffffffffffffffffffffffffffffffffffffffff1673ffffffffffffffffffffffffffffffffffffffff16815260200190815260200160002081905550505b600073ffffffffffffffffffffffffffffffffffffffff168273ffffffffffffffffffffffffffffffffffffffff16036105dc5780600260008282540392505081905550610629565b806000808473ffffffffffffffffffffffffffffffffffffffff1673ffffffffffffffffffffffffffffffffffffffff168152602001908152602001600020600082825401925050819055505b8173ffffffffffffffffffffffffffffffffffffffff168373ffffffffffffffffffffffffffffffffffffffff167fddf252ad1be2c89b69c2b068fc378daa952ba7f163c4a11628f55a4df523b3ef836040516106869190611033565b60405180910390a3505050565b6000604051905090565b600080fd5b600080fd5b600073ffffffffffffffffffffffffffffffffffffffff82169050919050565b60006106d2826106a7565b9050919050565b6106e2816106c7565b81146106ed57600080fd5b50565b6000815190506106ff816106d9565b92915050565b6000819050919050565b61071881610705565b811461072357600080fd5b50565b6000815190506107358161070f565b92915050565b600080fd5b600080fd5b6000601f19601f8301169050919050565b7f4e487b7100000000000000000000000000000000000000000000000000000000600052604160045260246000fd5b61078e82610745565b810181811067ffffffffffffffff821117156107ad576107ac610756565b5b80604052505050565b60006107c0610693565b90506107cc8282610785565b919050565b600067ffffffffffffffff8211156107ec576107eb610756565b5b6107f582610745565b9050602081019050919050565b60005b83811015610820578082015181840152602081019050610805565b60008484015250505050565b600061083f61083a846107d1565b6107b6565b90508281526020810184848401111561085b5761085a610740565b5b610866848285610802565b509392505050565b600082601f8301126108835761088261073b565b5b815161089384826020860161082c565b91505092915050565b600080600080608085870312156108b6576108b561069d565b5b60006108c4878288016106f0565b94505060206108d587828801610726565b935050604085015167ffffffffffffffff8111156108f6576108f56106a2565b5b6109028782880161086e565b925050606085015167ffffffffffffffff811115610923576109226106a2565b5b61092f8782880161086e565b91505092959194509250565b600081519050919050565b7f4e487b7100000000000000000000000000000000000000000000000000000000600052602260045260246000fd5b6000600282049050600182168061098d57607f821691505b6020821081036109a05761099f610946565b5b50919050565b60008190508160005260206000209050919050565b60006020601f8301049050919050565b600082821b905092915050565b600060088302610a087fffffffffffffffffffffffffffffffffffffffffffffffffffffffffffffffff826109cb565b610a1286836109cb565b95508019841693508086168417925050509392505050565b6000819050919050565b6000610a4f610a4a610a4584610705565b610a2a565b610705565b9050919050565b6000819050919050565b610a6983610a34565b610a7d610a7582610a56565b8484546109d8565b825550505050565b600090565b610a92610a85565b610a9d818484610a60565b505050565b5b81811015610ac157610ab6600082610a8a565b600181019050610aa3565b5050565b601f821115610b0657610ad7816109a6565b610ae0846109bb565b81016020851015610aef578190505b610b03610afb856109bb565b830182610aa2565b50505b505050565b600082821c905092915050565b6000610b2960001984600802610b0b565b1980831691505092915050565b6000610b428383610b18565b9150826002028217905092915050565b610b5b8261093b565b67ffffffffffffffff811115610b7457610b73610756565b5b610b7e8254610975565b610b89828285610ac5565b600060209050601f831160018114610bbc5760008415610baa578287015190505b610bb48582610b36565b865550610c1c565b601f198416610bca866109a6565b60005b82811015610bf257848901518255600182019150602085019450602081019050610bcd565b86831015610c0f5784890151610c0b601f891682610b18565b8355505b6001600288020188555050505b505050505050565b610c2d816106c7565b82525050565b6000602082019050610c486000830184610c24565b92915050565b7f4e487b7100000000000000000000000000000000000000000000000000000000600052601160045260246000fd5b60008160011c9050919050565b6000808291508390505b6001851115610cd457808604811115610cb057610caf610c4e565b5b6001851615610cbf5780820291505b8081029050610ccd85610c7d565b9450610c94565b94509492505050565b600082610ced5760019050610da9565b81610cfb5760009050610da9565b8160018114610d115760028114610d1b57610d4a565b6001915050610da9565b60ff841115610d2d57610d2c610c4e565b5b8360020a915084821115610d4457610d43610c4e565b5b50610da9565b5060208310610133831016604e8410600b8410161715610d7f5782820a905083811115610d7a57610d79610c4e565b5b610da9565b610d8c8484846001610c8a565b92509050818404811115610da357610da2610c4e565b5b81810290505b9392505050565b600060ff82169050919050565b6000610dc882610705565b9150610dd383610db0565b9250610e007fffffffffffffffffffffffffffffffffffffffffffffffffffffffffffffffff8484610cdd565b905092915050565b6000610e1382610705565b9150610e1e83610705565b9250828202610e2c81610705565b91508282048414831517610e4357610e42610c4e565b5b5092915050565b6000819050919050565b610e5d81610e4a565b82525050565b610e6c81610705565b82525050565b600060a082019050610e876000830188610e54565b610e946020830187610e54565b610ea16040830186610e54565b610eae6060830185610e63565b610ebb6080830184610c24565b9695505050505050565b600082825260208201905092915050565b6000610ee18261093b565b610eeb8185610ec5565b9350610efb818560208601610802565b610f0481610745565b840191505092915050565b60006020820190508181036000830152610f298184610ed6565b905092915050565b600081519050919050565b6000819050602082019050919050565b6000610f588251610e4a565b80915050919050565b6000610f6c82610f31565b82610f7684610f3c565b9050610f8181610f4c565b92506020821015610fc157610fbc7fffffffffffffffffffffffffffffffffffffffffffffffffffffffffffffffff836020036008026109cb565b831692505b5050919050565b6000610fd382610705565b9150610fde83610705565b9250828201905080821115610ff657610ff5610c4e565b5b92915050565b60006060820190506110116000830186610c24565b61101e6020830185610e63565b61102b6040830184610e63565b949350505050565b60006020820190506110486000830184610e63565b92915050565b60805160a05160c05160e0516101005161012051610140516128176110a860003960006112f9015260006112be0152600061180e015260006117ed01526000610fea015260006110400152600061106901526128176000f3fe608060405234801561001057600080fd5b50600436106101375760003560e01c8063715018a6116100b857806398807d841161007c57806398807d8414610320578063a694fc3a14610350578063a9059cbb1461036c578063d505accf1461039c578063dd62ed3e146103b8578063f2fde38b146103e857610137565b8063715018a6146102865780637ecebe001461029057806384b0196e146102c05780638da5cb5b146102e457806395d89b411461030257610137565b8063313ce567116100ff578063313ce567146101f45780633610724e146102125780633644e5151461022e5780634e71d92d1461024c57806370a082311461025657610137565b806306fdde031461013c578063095ea7b31461015a57806318160ddd1461018a57806323b872dd146101a85780632e17de78146101d8575b600080fd5b610144610404565b6040516101519190611cfb565b60405180910390f35b610174600480360381019061016f9190611db6565b610496565b6040516101819190611e11565b60405180910390f35b6101926104b9565b60405161019f9190611e3b565b60405180910390f35b6101c260048036038101906101bd9190611e56565b6104c3565b6040516101cf9190611e11565b60405180910390f35b6101f260048036038101906101ed9190611ea9565b6104f2565b005b6101fc610623565b6040516102099190611ef2565b60405180910390f35b61022c60048036038101906102279190611ea9565b61062c565b005b6102366106c8565b6040516102439190611f26565b60405180910390f35b6102546106d7565b005b610270600480360381019061026b9190611f41565b610858565b60405161027d9190611e3b565b60405180910390f35b61028e6108a0565b005b6102aa60048036038101906102a59190611f41565b6108b4565b6040516102b79190611e3b565b60405180910390f35b6102c86108c6565b6040516102db9796959493929190612076565b60405180910390f35b6102ec610970565b6040516102f991906120fa565b60405180910390f35b61030a61099a565b6040516103179190611cfb565b60405180910390f35b61033a60048036038101906103359190611f41565b610a2c565b6040516103479190611e3b565b60405180910390f35b61036a60048036038101906103659190611ea9565b610a44565b005b61038660048036038101906103819190611db6565b610bcb565b6040516103939190611e11565b60405180910390f35b6103b660048036038101906103b1919061216d565b610bee565b005b6103d260048036038101906103cd919061220f565b610d36565b6040516103df9190611e3b565b60405180910390f35b61040260048036038101906103fd9190611f41565b610dbd565b005b6060600380546104139061227e565b80601f016020809104026020016040519081016040528092919081815260200182805461043f9061227e565b801561048c5780601f106104615761010080835404028352916020019161048c565b820191906000526020600020905b81548152906001019060200180831161046f57829003601f168201915b5050505050905090565b6000806104a1610e43565b90506104ae818585610e4b565b600191505092915050565b6000600254905090565b6000806104ce610e43565b90506104db858285610e5d565b6104e6858585610ef2565b60019150509392505050565b60008111610535576040517f08c379a000000000000000000000000000000000000000000000000000000000815260040161052c906122fb565b60405180910390fd5b80600960003373ffffffffffffffffffffffffffffffffffffffff1673ffffffffffffffffffffffffffffffffffffffff1681526020019081526020016000205410156105b7576040517f08c379a00000000000000000000000000000000000000000000000000000000081526004016105ae90612367565b60405180910390fd5b6105bf6106d7565b80600960003373ffffffffffffffffffffffffffffffffffffffff1673ffffffffffffffffffffffffffffffffffffffff168152602001908152602001600020600082825461060e91906123b6565b92505081905550610620303383610ef2565b50565b60006012905090565b6000811161066f576040517f08c379a000000000000000000000000000000000000000000000000000000000815260040161066690612436565b60405180910390fd5b8061067930610858565b10156106ba576040517f08c379a00000000000000000000000000000000000000000000000000000000081526004016106b1906124c8565b60405180910390fd5b6106c5303383610ef2565b50565b60006106d2610fe6565b905090565b6000600960003373ffffffffffffffffffffffffffffffffffffffff1673ffffffffffffffffffffffffffffffffffffffff1681526020019081526020016000205411610759576040517f08c379a000000000000000000000000000000000000000000000000000000000815260040161075090612534565b60405180910390fd5b6000600a60003373ffffffffffffffffffffffffffffffffffffffff1673ffffffffffffffffffffffffffffffffffffffff16815260200190815260200160002054426107a691906123b6565b905060006301e1432082600960003373ffffffffffffffffffffffffffffffffffffffff1673ffffffffffffffffffffffffffffffffffffffff168152602001908152602001600020546107fa9190612554565b61080491906125c5565b9050610810338261109d565b42600a60003373ffffffffffffffffffffffffffffffffffffffff1673ffffffffffffffffffffffffffffffffffffffff168152602001908152602001600020819055505050565b60008060008373ffffffffffffffffffffffffffffffffffffffff1673ffffffffffffffffffffffffffffffffffffffff168152602001908152602001600020549050919050565b6108a861111f565b6108b260006111a6565b565b60006108bf8261126c565b9050919050565b6000606080600080600060606108da6112b5565b6108e26112f0565b46306000801b600067ffffffffffffffff811115610903576109026125f6565b5b6040519080825280602002602001820160405280156109315781602001602082028036833780820191505090505b507f0f00000000000000000000000000000000000000000000000000000000000000959493929190965096509650965096509650965090919293949596565b6000600560009054906101000a900473ffffffffffffffffffffffffffffffffffffffff16905090565b6060600480546109a99061227e565b80601f01602080910402602001604051908101604052809291908181526020018280546109d59061227e565b8015610a225780601f106109f757610100808354040283529160200191610a22565b820191906000526020600020905b815481529060010190602001808311610a0557829003601f168201915b5050505050905090565b60096020528060005260406000206000915090505481565b60008111610a87576040517f08c379a0000000000000000000000000000000000000000000000000000000008152600401610a7e906122fb565b60405180910390fd5b80610a9133610858565b1015610ad2576040517f08c379a0000000000000000000000000000000000000000000000000000000008152600401610ac990612367565b60405180910390fd5b610add333083610ef2565b6000600960003373ffffffffffffffffffffffffffffffffffffffff1673ffffffffffffffffffffffffffffffffffffffff168152602001908152602001600020541115610b2e57610b2d6106d7565b5b42600a60003373ffffffffffffffffffffffffffffffffffffffff1673ffffffffffffffffffffffffffffffffffffffff1681526020019081526020016000208190555080600960003373ffffffffffffffffffffffffffffffffffffffff1673ffffffffffffffffffffffffffffffffffffffff1681526020019081526020016000206000828254610bc19190612625565b9250508190555050565b600080610bd6610e43565b9050610be3818585610ef2565b600191505092915050565b83421115610c3357836040517f62791302000000000000000000000000000000000000000000000000000000008152600401610c2a9190611e3b565b60405180910390fd5b60007f6e71edae12b1b97f4d1f60370fef10105fa2faae0126114a169c64845d6126c9888888610c628c61132b565b89604051602001610c7896959493929190612659565b6040516020818303038152906040528051906020012090506000610c9b82611382565b90506000610cab8287878761139c565b90508973ffffffffffffffffffffffffffffffffffffffff168173ffffffffffffffffffffffffffffffffffffffff1614610d1f57808a6040517f4b800e46000000000000000000000000000000000000000000000000000000008152600401610d169291906126ba565b60405180910390fd5b610d2a8a8a8a610e4b565b50505050505050505050565b6000600160008473ffffffffffffffffffffffffffffffffffffffff1673ffffffffffffffffffffffffffffffffffffffff16815260200190815260200160002060008373ffffffffffffffffffffffffffffffffffffffff1673ffffffffffffffffffffffffffffffffffffffff16815260200190815260200160002054905092915050565b610dc561111f565b600073ffffffffffffffffffffffffffffffffffffffff168173ffffffffffffffffffffffffffffffffffffffff1603610e375760006040517f1e4fbdf7000000000000000000000000000000000000000000000000000000008152600401610e2e91906120fa565b60405180910390fd5b610e40816111a6565b50565b600033905090565b610e5883838360016113cc565b505050565b6000610e698484610d36565b90507fffffffffffffffffffffffffffffffffffffffffffffffffffffffffffffffff811015610eec5781811015610edc578281836040517ffb8f41b2000000000000000000000000000000000000000000000000000000008152600401610ed3939291906126e3565b60405180910390fd5b610eeb848484840360006113cc565b5b50505050565b600073ffffffffffffffffffffffffffffffffffffffff168373ffffffffffffffffffffffffffffffffffffffff1603610f645760006040517f96c6fd1e000000000000000000000000000000000000000000000000000000008152600401610f5b91906120fa565b60405180910390fd5b600073ffffffffffffffffffffffffffffffffffffffff168273ffffffffffffffffffffffffffffffffffffffff1603610fd65760006040517fec442f05000000000000000000000000000000000000000000000000000000008152600401610fcd91906120fa565b60405180910390fd5b610fe18383836115a3565b505050565b60007f000000000000000000000000000000000000000000000000000000000000000073ffffffffffffffffffffffffffffffffffffffff163073ffffffffffffffffffffffffffffffffffffffff1614801561106257507f000000000000000000000000000000000000000000000000000000000000000046145b1561108f577f0000000000000000000000000000000000000000000000000000000000000000905061109a565b6110976117c8565b90505b90565b600073ffffffffffffffffffffffffffffffffffffffff168273ffffffffffffffffffffffffffffffffffffffff160361110f5760006040517fec442f0500000000000000000000000000000000000000000000000000000000815260040161110691906120fa565b60405180910390fd5b61111b600083836115a3565b5050565b611127610e43565b73ffffffffffffffffffffffffffffffffffffffff16611145610970565b73ffffffffffffffffffffffffffffffffffffffff16146111a457611168610e43565b6040517f118cdaa700000000000000000000000000000000000000000000000000000000815260040161119b91906120fa565b60405180910390fd5b565b6000600560009054906101000a900473ffffffffffffffffffffffffffffffffffffffff16905081600560006101000a81548173ffffffffffffffffffffffffffffffffffffffff021916908373ffffffffffffffffffffffffffffffffffffffff1602179055508173ffffffffffffffffffffffffffffffffffffffff168173ffffffffffffffffffffffffffffffffffffffff167f8be0079c531659141344cd1fd0a4f28419497f9722a3daafe3b4186f6b6457e060405160405180910390a35050565b6000600860008373ffffffffffffffffffffffffffffffffffffffff1673ffffffffffffffffffffffffffffffffffffffff168152602001908152602001600020549050919050565b60606112eb60067f000000000000000000000000000000000000000000000000000000000000000061185e90919063ffffffff16565b905090565b606061132660077f000000000000000000000000000000000000000000000000000000000000000061185e90919063ffffffff16565b905090565b6000600860008373ffffffffffffffffffffffffffffffffffffffff1673ffffffffffffffffffffffffffffffffffffffff1681526020019081526020016000206000815480929190600101919050559050919050565b600061139561138f610fe6565b8361190e565b9050919050565b6000806000806113ae8888888861194f565b9250925092506113be8282611a43565b829350505050949350505050565b600073ffffffffffffffffffffffffffffffffffffffff168473ffffffffffffffffffffffffffffffffffffffff160361143e5760006040517fe602df0500000000000000000000000000000000000000000000000000000000815260040161143591906120fa565b60405180910390fd5b600073ffffffffffffffffffffffffffffffffffffffff168373ffffffffffffffffffffffffffffffffffffffff16036114b05760006040517f94280d620000000000000000000000000000000000000000000000000000000081526004016114a791906120fa565b60405180910390fd5b81600160008673ffffffffffffffffffffffffffffffffffffffff1673ffffffffffffffffffffffffffffffffffffffff16815260200190815260200160002060008573ffffffffffffffffffffffffffffffffffffffff1673ffffffffffffffffffffffffffffffffffffffff16815260200190815260200160002081905550801561159d578273ffffffffffffffffffffffffffffffffffffffff168473ffffffffffffffffffffffffffffffffffffffff167f8c5be1e5ebec7d5bd14f71427d1e84f3dd0314c0f7b2291e5b200ac8c7c3b925846040516115949190611e3b565b60405180910390a35b50505050565b600073ffffffffffffffffffffffffffffffffffffffff168373ffffffffffffffffffffffffffffffffffffffff16036115f55780600260008282546115e99190612625565b925050819055506116c8565b60008060008573ffffffffffffffffffffffffffffffffffffffff1673ffffffffffffffffffffffffffffffffffffffff16815260200190815260200160002054905081811015611681578381836040517fe450d38c000000000000000000000000000000000000000000000000000000008152600401611678939291906126e3565b60405180910390fd5b8181036000808673ffffffffffffffffffffffffffffffffffffffff1673ffffffffffffffffffffffffffffffffffffffff16815260200190815260200160002081905550505b600073ffffffffffffffffffffffffffffffffffffffff168273ffffffffffffffffffffffffffffffffffffffff1603611711578060026000828254039250508190555061175e565b806000808473ffffffffffffffffffffffffffffffffffffffff1673ffffffffffffffffffffffffffffffffffffffff168152602001908152602001600020600082825401925050819055505b8173ffffffffffffffffffffffffffffffffffffffff168373ffffffffffffffffffffffffffffffffffffffff167fddf252ad1be2c89b69c2b068fc378daa952ba7f163c4a11628f55a4df523b3ef836040516117bb9190611e3b565b60405180910390a3505050565b60007f8b73c3c69bb8fe3d512ecc4cf759cc79239f7b179b0ffacaa9a75d522b39400f7f00000000000000000000000000000000000000000000000000000000000000007f0000000000000000000000000000000000000000000000000000000000000000463060405160200161184395949392919061271a565b60405160208183030381529060405280519060200120905090565b606060ff60001b831461187b5761187483611ba7565b9050611908565b8180546118879061227e565b80601f01602080910402602001604051908101604052809291908181526020018280546118b39061227e565b80156119005780601f106118d557610100808354040283529160200191611900565b820191906000526020600020905b8154815290600101906020018083116118e357829003601f168201915b505050505090505b92915050565b60006040517f190100000000000000000000000000000000000000000000000000000000000081528360028201528260228201526042812091505092915050565b60008060007f7fffffffffffffffffffffffffffffff5d576e7357a4501ddfe92f46681b20a08460001c111561198f576000600385925092509250611a39565b6000600188888888604051600081526020016040526040516119b4949392919061276d565b6020604051602081039080840390855afa1580156119d6573d6000803e3d6000fd5b505050602060405103519050600073ffffffffffffffffffffffffffffffffffffffff168173ffffffffffffffffffffffffffffffffffffffff1603611a2a57600060016000801b93509350935050611a39565b8060008060001b935093509350505b9450945094915050565b60006003811115611a5757611a566127b2565b5b826003811115611a6a57611a696127b2565b5b0315611ba35760016003811115611a8457611a836127b2565b5b826003811115611a9757611a966127b2565b5b03611ace576040517ff645eedf00000000000000000000000000000000000000000000000000000000815260040160405180910390fd5b60026003811115611ae257611ae16127b2565b5b826003811115611af557611af46127b2565b5b03611b3a578060001c6040517ffce698f7000000000000000000000000000000000000000000000000000000008152600401611b319190611e3b565b60405180910390fd5b600380811115611b4d57611b4c6127b2565b5b826003811115611b6057611b5f6127b2565b5b03611ba257806040517fd78bce0c000000000000000000000000000000000000000000000000000000008152600401611b999190611f26565b60405180910390fd5b5b5050565b60606000611bb483611c1b565b90506000602067ffffffffffffffff811115611bd357611bd26125f6565b5b6040519080825280601f01601f191660200182016040528015611c055781602001600182028036833780820191505090505b5090508181528360208201528092505050919050565b60008060ff8360001c169050601f811115611c62576040517fb3512b0c00000000000000000000000000000000000000000000000000000000815260040160405180910390fd5b80915050919050565b600081519050919050565b600082825260208201905092915050565b60005b83811015611ca5578082015181840152602081019050611c8a565b60008484015250505050565b6000601f19601f8301169050919050565b6000611ccd82611c6b565b611cd78185611c76565b9350611ce7818560208601611c87565b611cf081611cb1565b840191505092915050565b60006020820190508181036000830152611d158184611cc2565b905092915050565b600080fd5b600073ffffffffffffffffffffffffffffffffffffffff82169050919050565b6000611d4d82611d22565b9050919050565b611d5d81611d42565b8114611d6857600080fd5b50565b600081359050611d7a81611d54565b92915050565b6000819050919050565b611d9381611d80565b8114611d9e57600080fd5b50565b600081359050611db081611d8a565b92915050565b60008060408385031215611dcd57611dcc611d1d565b5b6000611ddb85828601611d6b565b9250506020611dec85828601611da1565b9150509250929050565b60008115159050919050565b611e0b81611df6565b82525050565b6000602082019050611e266000830184611e02565b92915050565b611e3581611d80565b82525050565b6000602082019050611e506000830184611e2c565b92915050565b600080600060608486031215611e6f57611e6e611d1d565b5b6000611e7d86828701611d6b565b9350506020611e8e86828701611d6b565b9250506040611e9f86828701611da1565b9150509250925092565b600060208284031215611ebf57611ebe611d1d565b5b6000611ecd84828501611da1565b91505092915050565b600060ff82169050919050565b611eec81611ed6565b82525050565b6000602082019050611f076000830184611ee3565b92915050565b6000819050919050565b611f2081611f0d565b82525050565b6000602082019050611f3b6000830184611f17565b92915050565b600060208284031215611f5757611f56611d1d565b5b6000611f6584828501611d6b565b91505092915050565b60007fff0000000000000000000000000000000000000000000000000000000000000082169050919050565b611fa381611f6e565b82525050565b611fb281611d42565b82525050565b600081519050919050565b600082825260208201905092915050565b6000819050602082019050919050565b611fed81611d80565b82525050565b6000611fff8383611fe4565b60208301905092915050565b6000602082019050919050565b600061202382611fb8565b61202d8185611fc3565b935061203883611fd4565b8060005b838110156120695781516120508882611ff3565b975061205b8361200b565b92505060018101905061203c565b5085935050505092915050565b600060e08201905061208b600083018a611f9a565b818103602083015261209d8189611cc2565b905081810360408301526120b18188611cc2565b90506120c06060830187611e2c565b6120cd6080830186611fa9565b6120da60a0830185611f17565b81810360c08301526120ec8184612018565b905098975050505050505050565b600060208201905061210f6000830184611fa9565b92915050565b61211e81611ed6565b811461212957600080fd5b50565b60008135905061213b81612115565b92915050565b61214a81611f0d565b811461215557600080fd5b50565b60008135905061216781612141565b92915050565b600080600080600080600060e0888a03121561218c5761218b611d1d565b5b600061219a8a828b01611d6b565b97505060206121ab8a828b01611d6b565b96505060406121bc8a828b01611da1565b95505060606121cd8a828b01611da1565b94505060806121de8a828b0161212c565b93505060a06121ef8a828b01612158565b92505060c06122008a828b01612158565b91505092959891949750929550565b6000806040838503121561222657612225611d1d565b5b600061223485828601611d6b565b925050602061224585828601611d6b565b9150509250929050565b7f4e487b7100000000000000000000000000000000000000000000000000000000600052602260045260246000fd5b6000600282049050600182168061229657607f821691505b6020821081036122a9576122a861224f565b5b50919050565b7f416d6f756e74206973203c3d3000000000000000000000000000000000000000600082015250565b60006122e5600d83611c76565b91506122f0826122af565b602082019050919050565b60006020820190508181036000830152612314816122d8565b9050919050565b7f4e6f7420456e6f7567682042616c616e63650000000000000000000000000000600082015250565b6000612351601283611c76565b915061235c8261231b565b602082019050919050565b6000602082019050818103600083015261238081612344565b9050919050565b7f4e487b7100000000000000000000000000000000000000000000000000000000600052601160045260246000fd5b60006123c182611d80565b91506123cc83611d80565b92508282039050818111156123e4576123e3612387565b5b92915050565b7f416d6f756e74206d7573742062652067726561746572207468616e2030000000600082015250565b6000612420601d83611c76565b915061242b826123ea565b602082019050919050565b6000602082019050818103600083015261244f81612413565b9050919050565b7f416d6f756e74206d757374206265206c6f77657220746861742062616c616e6360008201527f6500000000000000000000000000000000000000000000000000000000000000602082015250565b60006124b2602183611c76565b91506124bd82612456565b604082019050919050565b600060208201905081810360008301526124e1816124a5565b9050919050565b7f7374616b6564206973203c3d3000000000000000000000000000000000000000600082015250565b600061251e600d83611c76565b9150612529826124e8565b602082019050919050565b6000602082019050818103600083015261254d81612511565b9050919050565b600061255f82611d80565b915061256a83611d80565b925082820261257881611d80565b9150828204841483151761258f5761258e612387565b5b5092915050565b7f4e487b7100000000000000000000000000000000000000000000000000000000600052601260045260246000fd5b60006125d082611d80565b91506125db83611d80565b9250826125eb576125ea612596565b5b828204905092915050565b7f4e487b7100000000000000000000000000000000000000000000000000000000600052604160045260246000fd5b600061263082611d80565b915061263b83611d80565b925082820190508082111561265357612652612387565b5b92915050565b600060c08201905061266e6000830189611f17565b61267b6020830188611fa9565b6126886040830187611fa9565b6126956060830186611e2c565b6126a26080830185611e2c565b6126af60a0830184611e2c565b979650505050505050565b60006040820190506126cf6000830185611fa9565b6126dc6020830184611fa9565b9392505050565b60006060820190506126f86000830186611fa9565b6127056020830185611e2c565b6127126040830184611e2c565b949350505050565b600060a08201905061272f6000830188611f17565b61273c6020830187611f17565b6127496040830186611f17565b6127566060830185611e2c565b6127636080830184611fa9565b9695505050505050565b60006080820190506127826000830187611f17565b61278f6020830186611ee3565b61279c6040830185611f17565b6127a96060830184611f17565b95945050505050565b7f4e487b7100000000000000000000000000000000000000000000000000000000600052602160045260246000fdfea2646970667358221220bd44fba0a1936992dbabd36902e1a06821d4e43cc5076db23e65c980b0ec941064736f6c634300081c0033a2646970667358221220a978ec1465758f509df79be1bba2a926d23afb25d40dce5d8d0aaf154723e3cf64736f6c634300081c0033",
  "linkReferences": {},
  "deployedLinkReferences": {}
}