{
  "contractName": "Token",
  "abi": [
    {
      "inputs": [
        {
          "internalType": "address",
          "name": "initialOwner",
          "type": "address"
        },
        {
          "internalType": "uint256",
          "name": "initialSupply",
          "type": "uint256"
        },
        {
          "internalType": "string",
          "name": "name",
          "type": "string"
        },
        {
          "internalType": "string",
          "name": "symbol",
          "type": "string"
        }
      ],
      "stateMutability": "nonpayable",
      "type": "constructor"
    },
    {
      "inputs": [],
      "name": "ECDSAInvalidSignature",
      "type": "error"
    },
    {
      "inputs": [
        {
          "internalType": "uint256",
          "name": "length",
          "type": "uint256"
        }
      ],
      "name": "ECDSAInvalidSignatureLength",
      "type": "error"
    },
    {
      "inputs": [
        {
          "internalType": "bytes32",
          "name": "s",
          "type": "bytes32"
        }
      ],
      "name": "ECDSAInvalidSignatureS",
      "type": "error"
    },
    {
      "inputs": [
        {
          "internalType": "address",
          "name": "spender",
          "type": "address"
        },
        {
          "internalType": "uint256",
          "name": "allowance",
          "type": "uint256"
        },
        {
          "internalType": "uint256",
          "name": "needed",
          "type": "uint256"
        }
      ],
      "name": "ERC20InsufficientAllowance",
      "type": "error"
    },
    {
      "inputs": [
        {
          "internalType": "address",
          "name": "sender",
          "type": "address"
        },
        {
          "internalType": "uint256",
          "name": "balance",
          "type": "uint256"
        },
        {
          "internalType": "uint256",
          "name": "needed",
          "type": "uint256"
        }
      ],
      "name": "ERC20InsufficientBalance",
      "type": "error"
    },
    {
      "inputs": [
        {
          "internalType": "address",
          "name": "approver",
          "type": "address"
        }
      ],
      "name": "ERC20InvalidApprover",
      "type": "error"
    },
    {
      "inputs": [
        {
          "internalType": "address",
          "name": "receiver",
          "type": "address"
        }
      ],
      "name": "ERC20InvalidReceiver",
      "type": "error"
    },
    {
      "inputs": [
        {
          "internalType": "address",
          "name": "sender",
          "type": "address"
        }
      ],
      "name": "ERC20InvalidSender",
      "type": "error"
    },
    {
      "inputs": [
        {
          "internalType": "address",
          "name": "spender",
          "type": "address"
        }
      ],
      "name": "ERC20InvalidSpender",
      "type": "error"
    },
    {
      "inputs": [
        {
          "internalType": "uint256",
          "name": "deadline",
          "type": "uint256"
        }
      ],
      "name": "ERC2612ExpiredSignature",
      "type": "error"
    },
    {
      "inputs": [
        {
          "internalType": "address",
          "name": "signer",
          "type": "address"
        },
        {
          "internalType": "address",
          "name": "owner",
          "type": "address"
        }
      ],
      "name": "ERC2612InvalidSigner",
      "type": "error"
    },
    {
      "inputs": [
        {
          "internalType": "address",
          "name": "account",
          "type": "address"
        },
        {
          "internalType": "uint256",
          "name": "currentNonce",
          "type": "uint256"
        }
      ],
      "name": "InvalidAccountNonce",
      "type": "error"
    },
    {
      "inputs": [],
      "name": "InvalidShortString",
      "type": "error"
    },
    {
      "inputs": [
        {
          "internalType": "address",
          "name": "owner",
          "type": "address"
        }
      ],
      "name": "OwnableInvalidOwner",
      "type": "error"
    },
    {
      "inputs": [
        {
          "internalType": "address",
          "name": "account",
          "type": "address"
        }
      ],
      "name": "OwnableUnauthorizedAccount",
      "type": "error"
    },
    {
      "inputs": [
        {
          "internalType": "string",
          "name": "str",
          "type": "string"
        }
      ],
      "name": "StringTooLong",
      "type": "error"
    },
    {
      "anonymous": false,
      "inputs": [
        {
          "indexed": true,
          "internalType": "address",
          "name": "owner",
          "type": "address"
        },
        {
          "indexed": true,
          "internalType": "address",
          "name": "spender",
          "type": "address"
        },
        {
          "indexed": false,
          "internalType": "uint256",
          "name": "value",
          "type": "uint256"
        }
      ],
      "name": "Approval",
      "type": "event"
    },
    {
      "anonymous": false,
      "inputs": [],
      "name": "EIP712DomainChanged",
      "type": "event"
    },
    {
      "anonymous": false,
      "inputs": [
        {
          "indexed": true,
          "internalType": "address",
          "name": "previousOwner",
          "type": "address"
        },
        {
          "indexed": true,
          "internalType": "address",
          "name": "newOwner",
          "type": "address"
        }
      ],
      "name": "OwnershipTransferred",
      "type": "event"
    },
    {
      "anonymous": false,
      "inputs": [
        {
          "indexed": true,
          "internalType": "address",
          "name": "from",
          "type": "address"
        },
        {
          "indexed": true,
          "internalType": "address",
          "name": "to",
          "type": "address"
        },
        {
          "indexed": false,
          "internalType": "uint256",
          "name": "value",
          "type": "uint256"
        }
      ],
      "name": "Transfer",
      "type": "event"
    },
    {
      "inputs": [],
      "name": "DOMAIN_SEPARATOR",
      "outputs": [
        {
          "internalType": "bytes32",
          "name": "",
          "type": "bytes32"
        }
      ],
      "stateMutability": "view",
      "type": "function"
    },
    {
      "inputs": [
        {
          "internalType": "address",
          "name": "owner",
          "type": "address"
        },
        {
          "internalType": "address",
          "name": "spender",
          "type": "address"
        }
      ],
      "name": "allowance",
      "outputs": [
        {
          "internalType": "uint256",
          "name": "",
          "type": "uint256"
        }
      ],
      "stateMutability": "view",
      "type": "function"
    },
    {
      "inputs": [
        {
          "internalType": "address",
          "name": "spender",
          "type": "address"
        },
        {
          "internalType": "uint256",
          "name": "value",
          "type": "uint256"
        }
      ],
      "name": "approve",
      "outputs": [
        {
          "internalType": "bool",
          "name": "",
          "type": "bool"
        }
      ],
      "stateMutability": "nonpayable",
      "type": "function"
    },
    {
      "inputs": [
        {
          "internalType": "address",
          "name": "account",
          "type": "address"
        }
      ],
      "name": "balanceOf",
      "outputs": [
        {
          "internalType": "uint256",
          "name": "",
          "type": "uint256"
        }
      ],
      "stateMutability": "view",
      "type": "function"
    },
    {
      "inputs": [],
      "name": "decimals",
      "outputs": [
        {
          "internalType": "uint8",
          "name": "",
          "type": "uint8"
        }
      ],
      "stateMutability": "view",
      "type": "function"
    },
    {
      "inputs": [],
      "name": "eip712Domain",
      "outputs": [
        {
          "internalType": "bytes1",
          "name": "fields",
          "type": "bytes1"
        },
        {
          "internalType": "string",
          "name": "name",
          "type": "string"
        },
        {
          "internalType": "string",
          "name": "version",
          "type": "string"
        },
        {
          "internalType": "uint256",
          "name": "chainId",
          "type": "uint256"
        },
        {
          "internalType": "address",
          "name": "verifyingContract",
          "type": "address"
        },
        {
          "internalType": "bytes32",
          "name": "salt",
          "type": "bytes32"
        },
        {
          "internalType": "uint256[]",
          "name": "extensions",
          "type": "uint256[]"
        }
      ],
      "stateMutability": "view",
      "type": "function"
    },
    {
      "inputs": [],
      "name": "name",
      "outputs": [
        {
          "internalType": "string",
          "name": "",
          "type": "string"
        }
      ],
      "stateMutability": "view",
      "type": "function"
    },
    {
      "inputs": [
        {
          "internalType": "address",
          "name": "owner",
          "type": "address"
        }
      ],
      "name": "nonces",
      "outputs": [
        {
          "internalType": "uint256",
          "name": "",
          "type": "uint256"
        }
      ],
      "stateMutability": "view",
      "type": "function"
    },
    {
      "inputs": [],
      "name": "owner",
      "outputs": [
        {
          "internalType": "address",
          "name": "",
          "type": "address"
        }
      ],
      "stateMutability": "view",
      "type": "function"
    },
    {
      "inputs": [
        {
          "internalType": "address",
          "name": "owner",
          "type": "address"
        },
        {
          "internalType": "address",
          "name": "spender",
          "type": "address"
        },
        {
          "internalType": "uint256",
          "name": "value",
          "type": "uint256"
        },
        {
          "internalType": "uint256",
          "name": "deadline",
          "type": "uint256"
        },
        {
          "internalType": "uint8",
          "name": "v",
          "type": "uint8"
        },
        {
          "internalType": "bytes32",
          "name": "r",
          "type": "bytes32"
        },
        {
          "internalType": "bytes32",
          "name": "s",
          "type": "bytes32"
        }
      ],
      "name": "permit",
      "outputs": [],
      "stateMutability": "nonpayable",
      "type": "function"
    },
    {
      "inputs": [],
      "name": "renounceOwnership",
      "outputs": [],
      "stateMutability": "nonpayable",
      "type": "function"
    },
    {
      "inputs": [
        {
          "internalType": "address",
          "name": "",
          "type": "address"
        }
      ],
      "name": "staked",
      "outputs": [
        {
          "internalType": "uint256",
          "name": "",
          "type": "uint256"
        }
      ],
      "stateMutability": "view",
      "type": "function"
    },
    {
      "inputs": [],
      "name": "symbol",
      "outputs": [
        {
          "internalType": "string",
          "name": "",
          "type": "string"
        }
      ],
      "stateMutability": "view",
      "type": "function"
    },
    {
      "inputs": [],
      "name": "totalSupply",
      "outputs": [
        {
          "internalType": "uint256",
          "name": "",
          "type": "uint256"
        }
      ],
      "stateMutability": "view",
      "type": "function"
    },
    {
      "inputs": [
        {
          "internalType": "address",
          "name": "to",
          "type": "address"
        },
        {
          "internalType": "uint256",
          "name": "value",
          "type": "uint256"
        }
      ],
      "name": "transfer",
      "outputs": [
        {
          "internalType": "bool",
          "name": "",
          "type": "bool"
        }
      ],
      "stateMutability": "nonpayable",
      "type": "function"
    },
    {
      "inputs": [
        {
          "internalType": "address",
          "name": "from",
          "type": "address"
        },
        {
          "internalType": "address",
          "name": "to",
          "type": "address"
        },
        {
          "internalType": "uint256",
          "name": "value",
          "type": "uint256"
        }
      ],
      "name": "transferFrom",
      "outputs": [
        {
          "internalType": "bool",
          "name": "",
          "type": "bool"
        }
      ],
      "stateMutability": "nonpayable",
      "type": "function"
    },
    {
      "inputs": [
        {
          "internalType": "address",
          "name": "newOwner",
          "type": "address"
        }
      ],
      "name": "transferOwnership",
      "outputs": [],
      "stateMutability": "nonpayable",
      "type": "function"
    },
    {
      "inputs": [
        {
          "internalType": "uint256",
          "name": "amount",
          "type": "uint256"
        }
      ],
      "name": "stake",
      "outputs": [],
      "stateMutability": "nonpayable",
      "type": "function"
    },
    {
      "inputs": [
        {
          "internalType": "uint256",
          "name": "amount",
          "type": "uint256"
        }
      ],
      "name": "unstake",
      "outputs": [],
      "stateMutability": "nonpayable",
      "type": "function"
    },
    {
      "inputs": [],
      "name": "claim",
      "outputs": [],
      "stateMutability": "nonpayable",
      "type": "function"
    }
  ],
  "bytecode": "0x61016060405234801562000011575f80fd5b50604051620036fc380380620036fc833981810160405281019062000037919062000904565b6040518060400160405280600581526020017f546f6b656e000000000000000000000000000000000000000000000000000000815250806040518060400160405280600181526020017f31000000000000000000000000000000000000000000000000000000000000008152508685858160039081620000b8919062000bdf565b508060049081620000ca919062000bdf565b5050505f73ffffffffffffffffffffffffffffffffffffffff168173ffffffffffffffffffffffffffffffffffffffff160362000140575f6040517f1e4fbdf700000000000000000000000000000000000000000000000000000000815260040162000137919062000cd4565b60405180910390fd5b62000151816200024960201b60201c565b50620001686006836200030c60201b90919060201c565b6101208181525050620001866007826200030c60201b90919060201c565b6101408181525050818051906020012060e08181525050808051906020012061010081815250504660a08181525050620001c56200036160201b60201c565b608081815250503073ffffffffffffffffffffffffffffffffffffffff1660c08173ffffffffffffffffffffffffffffffffffffffff16815250505050506200023f3062000218620003bd60201b60201c565b600a62000226919062000e78565b8562000233919062000ec8565b620003c560201b60201c565b5050505062001138565b5f60055f9054906101000a900473ffffffffffffffffffffffffffffffffffffffff1690508160055f6101000a81548173ffffffffffffffffffffffffffffffffffffffff021916908373ffffffffffffffffffffffffffffffffffffffff1602179055508173ffffffffffffffffffffffffffffffffffffffff168173ffffffffffffffffffffffffffffffffffffffff167f8be0079c531659141344cd1fd0a4f28419497f9722a3daafe3b4186f6b6457e060405160405180910390a35050565b5f602083511015620003315762000329836200044f60201b60201c565b90506200035b565b826200034383620004b960201b60201c565b5f01908162000353919062000bdf565b5060ff5f1b90505b92915050565b5f7f8b73c3c69bb8fe3d512ecc4cf759cc79239f7b179b0ffacaa9a75d522b39400f60e051610100514630604051602001620003a295949392919062000f3d565b60405160208183030381529060405280519060200120905090565b5f6012905090565b5f73ffffffffffffffffffffffffffffffffffffffff168273ffffffffffffffffffffffffffffffffffffffff160362000438575f6040517fec442f050000000000000000000000000000000000000000000000000000000081526004016200042f919062000cd4565b60405180910390fd5b6200044b5f8383620004c260201b60201c565b5050565b5f80829050601f815111156200049e57826040517f305a27a900000000000000000000000000000000000000000000000000000000815260040162000495919062000fe8565b60405180910390fd5b805181620004ac9062001039565b5f1c175f1b915050919050565b5f819050919050565b5f73ffffffffffffffffffffffffffffffffffffffff168373ffffffffffffffffffffffffffffffffffffffff160362000516578060025f828254620005099190620010a8565b92505081905550620005e7565b5f805f8573ffffffffffffffffffffffffffffffffffffffff1673ffffffffffffffffffffffffffffffffffffffff1681526020019081526020015f2054905081811015620005a2578381836040517fe450d38c0000000000000000000000000000000000000000000000000000000081526004016200059993929190620010e2565b60405180910390fd5b8181035f808673ffffffffffffffffffffffffffffffffffffffff1673ffffffffffffffffffffffffffffffffffffffff1681526020019081526020015f2081905550505b5f73ffffffffffffffffffffffffffffffffffffffff168273ffffffffffffffffffffffffffffffffffffffff160362000630578060025f82825403925050819055506200067a565b805f808473ffffffffffffffffffffffffffffffffffffffff1673ffffffffffffffffffffffffffffffffffffffff1681526020019081526020015f205f82825401925050819055505b8173ffffffffffffffffffffffffffffffffffffffff168373ffffffffffffffffffffffffffffffffffffffff167fddf252ad1be2c89b69c2b068fc378daa952ba7f163c4a11628f55a4df523b3ef83604051620006d991906200111d565b60405180910390a3505050565b5f604051905090565b5f80fd5b5f80fd5b5f73ffffffffffffffffffffffffffffffffffffffff82169050919050565b5f6200072282620006f7565b9050919050565b620007348162000716565b81146200073f575f80fd5b50565b5f81519050620007528162000729565b92915050565b5f819050919050565b6200076c8162000758565b811462000777575f80fd5b50565b5f815190506200078a8162000761565b92915050565b5f80fd5b5f80fd5b5f601f19601f8301169050919050565b7f4e487b71000000000000000000000000000000000000000000000000000000005f52604160045260245ffd5b620007e08262000798565b810181811067ffffffffffffffff82111715620008025762000801620007a8565b5b80604052505050565b5f62000816620006e6565b9050620008248282620007d5565b919050565b5f67ffffffffffffffff821115620008465762000845620007a8565b5b620008518262000798565b9050602081019050919050565b5f5b838110156200087d57808201518184015260208101905062000860565b5f8484015250505050565b5f6200089e620008988462000829565b6200080b565b905082815260208101848484011115620008bd57620008bc62000794565b5b620008ca8482856200085e565b509392505050565b5f82601f830112620008e957620008e862000790565b5b8151620008fb84826020860162000888565b91505092915050565b5f805f80608085870312156200091f576200091e620006ef565b5b5f6200092e8782880162000742565b945050602062000941878288016200077a565b935050604085015167ffffffffffffffff811115620009655762000964620006f3565b5b6200097387828801620008d2565b925050606085015167ffffffffffffffff811115620009975762000996620006f3565b5b620009a587828801620008d2565b91505092959194509250565b5f81519050919050565b7f4e487b71000000000000000000000000000000000000000000000000000000005f52602260045260245ffd5b5f600282049050600182168062000a0057607f821691505b60208210810362000a165762000a15620009bb565b5b50919050565b5f819050815f5260205f209050919050565b5f6020601f8301049050919050565b5f82821b905092915050565b5f6008830262000a7a7fffffffffffffffffffffffffffffffffffffffffffffffffffffffffffffffff8262000a3d565b62000a86868362000a3d565b95508019841693508086168417925050509392505050565b5f819050919050565b5f62000ac762000ac162000abb8462000758565b62000a9e565b62000758565b9050919050565b5f819050919050565b62000ae28362000aa7565b62000afa62000af18262000ace565b84845462000a49565b825550505050565b5f90565b62000b1062000b02565b62000b1d81848462000ad7565b505050565b5b8181101562000b445762000b385f8262000b06565b60018101905062000b23565b5050565b601f82111562000b935762000b5d8162000a1c565b62000b688462000a2e565b8101602085101562000b78578190505b62000b9062000b878562000a2e565b83018262000b22565b50505b505050565b5f82821c905092915050565b5f62000bb55f198460080262000b98565b1980831691505092915050565b5f62000bcf838362000ba4565b9150826002028217905092915050565b62000bea82620009b1565b67ffffffffffffffff81111562000c065762000c05620007a8565b5b62000c128254620009e8565b62000c1f82828562000b48565b5f60209050601f83116001811462000c55575f841562000c40578287015190505b62000c4c858262000bc2565b86555062000cbb565b601f19841662000c658662000a1c565b5f5b8281101562000c8e5784890151825560018201915060208501945060208101905062000c67565b8683101562000cae578489015162000caa601f89168262000ba4565b8355505b6001600288020188555050505b505050505050565b62000cce8162000716565b82525050565b5f60208201905062000ce95f83018462000cc3565b92915050565b7f4e487b71000000000000000000000000000000000000000000000000000000005f52601160045260245ffd5b5f8160011c9050919050565b5f808291508390505b600185111562000d795780860481111562000d515762000d5062000cef565b5b600185161562000d615780820291505b808102905062000d718562000d1c565b945062000d31565b94509492505050565b5f8262000d93576001905062000e65565b8162000da2575f905062000e65565b816001811462000dbb576002811462000dc65762000dfc565b600191505062000e65565b60ff84111562000ddb5762000dda62000cef565b5b8360020a91508482111562000df55762000df462000cef565b5b5062000e65565b5060208310610133831016604e8410600b841016171562000e365782820a90508381111562000e305762000e2f62000cef565b5b62000e65565b62000e45848484600162000d28565b9250905081840481111562000e5f5762000e5e62000cef565b5b81810290505b9392505050565b5f60ff82169050919050565b5f62000e848262000758565b915062000e918362000e6c565b925062000ec07fffffffffffffffffffffffffffffffffffffffffffffffffffffffffffffffff848462000d82565b905092915050565b5f62000ed48262000758565b915062000ee18362000758565b925082820262000ef18162000758565b9150828204841483151762000f0b5762000f0a62000cef565b5b5092915050565b5f819050919050565b62000f268162000f12565b82525050565b62000f378162000758565b82525050565b5f60a08201905062000f525f83018862000f1b565b62000f61602083018762000f1b565b62000f70604083018662000f1b565b62000f7f606083018562000f2c565b62000f8e608083018462000cc3565b9695505050505050565b5f82825260208201905092915050565b5f62000fb482620009b1565b62000fc0818562000f98565b935062000fd28185602086016200085e565b62000fdd8162000798565b840191505092915050565b5f6020820190508181035f83015262001002818462000fa8565b905092915050565b5f81519050919050565b5f819050602082019050919050565b5f62001030825162000f12565b80915050919050565b5f62001045826200100a565b82620010518462001014565b90506200105e8162001023565b92506020821015620010a1576200109c7fffffffffffffffffffffffffffffffffffffffffffffffffffffffffffffffff8360200360080262000a3d565b831692505b5050919050565b5f620010b48262000758565b9150620010c18362000758565b9250828201905080821115620010dc57620010db62000cef565b5b92915050565b5f606082019050620010f75f83018662000cc3565b62001106602083018562000f2c565b62001115604083018462000f2c565b949350505050565b5f602082019050620011325f83018462000f2c565b92915050565b60805160a05160c05160e0516101005161012051610140516125726200118a5f395f6111e501525f6111aa01525f6116de01525f6116bd01525f610edf01525f610f3501525f610f5e01526125725ff3fe608060405234801561000f575f80fd5b506004361061012a575f3560e01c80637ecebe00116100ab578063a694fc3a1161006f578063a694fc3a14610326578063a9059cbb14610342578063d505accf14610372578063dd62ed3e1461038e578063f2fde38b146103be5761012a565b80637ecebe001461026657806384b0196e146102965780638da5cb5b146102ba57806395d89b41146102d857806398807d84146102f65761012a565b8063313ce567116100f2578063313ce567146101e65780633644e515146102045780634e71d92d1461022257806370a082311461022c578063715018a61461025c5761012a565b806306fdde031461012e578063095ea7b31461014c57806318160ddd1461017c57806323b872dd1461019a5780632e17de78146101ca575b5f80fd5b6101366103da565b6040516101439190611bae565b60405180910390f35b61016660048036038101906101619190611c5f565b61046a565b6040516101739190611cb7565b60405180910390f35b61018461048c565b6040516101919190611cdf565b60405180910390f35b6101b460048036038101906101af9190611cf8565b610495565b6040516101c19190611cb7565b60405180910390f35b6101e460048036038101906101df9190611d48565b6104c3565b005b6101ee6105ee565b6040516101fb9190611d8e565b60405180910390f35b61020c6105f6565b6040516102199190611dbf565b60405180910390f35b61022a610604565b005b61024660048036038101906102419190611dd8565b61077a565b6040516102539190611cdf565b60405180910390f35b6102646107bf565b005b610280600480360381019061027b9190611dd8565b6107d2565b60405161028d9190611cdf565b60405180910390f35b61029e6107e3565b6040516102b19796959493929190611f03565b60405180910390f35b6102c2610888565b6040516102cf9190611f85565b60405180910390f35b6102e06108b0565b6040516102ed9190611bae565b60405180910390f35b610310600480360381019061030b9190611dd8565b610940565b60405161031d9190611cdf565b60405180910390f35b610340600480360381019061033b9190611d48565b610955565b005b61035c60048036038101906103579190611c5f565b610ad3565b6040516103699190611cb7565b60405180910390f35b61038c60048036038101906103879190611ff2565b610af5565b005b6103a860048036038101906103a3919061208f565b610c3a565b6040516103b59190611cdf565b60405180910390f35b6103d860048036038101906103d39190611dd8565b610cbc565b005b6060600380546103e9906120fa565b80601f0160208091040260200160405190810160405280929190818152602001828054610415906120fa565b80156104605780601f1061043757610100808354040283529160200191610460565b820191905f5260205f20905b81548152906001019060200180831161044357829003601f168201915b5050505050905090565b5f80610474610d40565b9050610481818585610d47565b600191505092915050565b5f600254905090565b5f8061049f610d40565b90506104ac858285610d59565b6104b7858585610dec565b60019150509392505050565b5f8111610505576040517f08c379a00000000000000000000000000000000000000000000000000000000081526004016104fc90612174565b60405180910390fd5b8060095f3373ffffffffffffffffffffffffffffffffffffffff1673ffffffffffffffffffffffffffffffffffffffff1681526020019081526020015f20541015610585576040517f08c379a000000000000000000000000000000000000000000000000000000000815260040161057c906121dc565b60405180910390fd5b61058d610604565b8060095f3373ffffffffffffffffffffffffffffffffffffffff1673ffffffffffffffffffffffffffffffffffffffff1681526020019081526020015f205f8282546105d99190612227565b925050819055506105eb303383610dec565b50565b5f6012905090565b5f6105ff610edc565b905090565b5f60095f3373ffffffffffffffffffffffffffffffffffffffff1673ffffffffffffffffffffffffffffffffffffffff1681526020019081526020015f205411610683576040517f08c379a000000000000000000000000000000000000000000000000000000000815260040161067a906122a4565b60405180910390fd5b5f600a5f3373ffffffffffffffffffffffffffffffffffffffff1673ffffffffffffffffffffffffffffffffffffffff1681526020019081526020015f2054426106cd9190612227565b90505f6301e143208260095f3373ffffffffffffffffffffffffffffffffffffffff1673ffffffffffffffffffffffffffffffffffffffff1681526020019081526020015f205461071e91906122c2565b6107289190612330565b90506107343382610f92565b42600a5f3373ffffffffffffffffffffffffffffffffffffffff1673ffffffffffffffffffffffffffffffffffffffff1681526020019081526020015f20819055505050565b5f805f8373ffffffffffffffffffffffffffffffffffffffff1673ffffffffffffffffffffffffffffffffffffffff1681526020019081526020015f20549050919050565b6107c7611011565b6107d05f611098565b565b5f6107dc8261115b565b9050919050565b5f6060805f805f60606107f46111a1565b6107fc6111dc565b46305f801b5f67ffffffffffffffff81111561081b5761081a612360565b5b6040519080825280602002602001820160405280156108495781602001602082028036833780820191505090505b507f0f00000000000000000000000000000000000000000000000000000000000000959493929190965096509650965096509650965090919293949596565b5f60055f9054906101000a900473ffffffffffffffffffffffffffffffffffffffff16905090565b6060600480546108bf906120fa565b80601f01602080910402602001604051908101604052809291908181526020018280546108eb906120fa565b80156109365780601f1061090d57610100808354040283529160200191610936565b820191905f5260205f20905b81548152906001019060200180831161091957829003601f168201915b5050505050905090565b6009602052805f5260405f205f915090505481565b5f8111610997576040517f08c379a000000000000000000000000000000000000000000000000000000000815260040161098e90612174565b60405180910390fd5b806109a13361077a565b10156109e2576040517f08c379a00000000000000000000000000000000000000000000000000000000081526004016109d9906121dc565b60405180910390fd5b6109ed333083610dec565b5f60095f3373ffffffffffffffffffffffffffffffffffffffff1673ffffffffffffffffffffffffffffffffffffffff1681526020019081526020015f20541115610a3b57610a3a610604565b5b42600a5f3373ffffffffffffffffffffffffffffffffffffffff1673ffffffffffffffffffffffffffffffffffffffff1681526020019081526020015f20819055508060095f3373ffffffffffffffffffffffffffffffffffffffff1673ffffffffffffffffffffffffffffffffffffffff1681526020019081526020015f205f828254610ac9919061238d565b9250508190555050565b5f80610add610d40565b9050610aea818585610dec565b600191505092915050565b83421115610b3a57836040517f62791302000000000000000000000000000000000000000000000000000000008152600401610b319190611cdf565b60405180910390fd5b5f7f6e71edae12b1b97f4d1f60370fef10105fa2faae0126114a169c64845d6126c9888888610b688c611217565b89604051602001610b7e969594939291906123c0565b6040516020818303038152906040528051906020012090505f610ba08261126a565b90505f610baf82878787611283565b90508973ffffffffffffffffffffffffffffffffffffffff168173ffffffffffffffffffffffffffffffffffffffff1614610c2357808a6040517f4b800e46000000000000000000000000000000000000000000000000000000008152600401610c1a92919061241f565b60405180910390fd5b610c2e8a8a8a610d47565b50505050505050505050565b5f60015f8473ffffffffffffffffffffffffffffffffffffffff1673ffffffffffffffffffffffffffffffffffffffff1681526020019081526020015f205f8373ffffffffffffffffffffffffffffffffffffffff1673ffffffffffffffffffffffffffffffffffffffff1681526020019081526020015f2054905092915050565b610cc4611011565b5f73ffffffffffffffffffffffffffffffffffffffff168173ffffffffffffffffffffffffffffffffffffffff1603610d34575f6040517f1e4fbdf7000000000000000000000000000000000000000000000000000000008152600401610d2b9190611f85565b60405180910390fd5b610d3d81611098565b50565b5f33905090565b610d5483838360016112b1565b505050565b5f610d648484610c3a565b90507fffffffffffffffffffffffffffffffffffffffffffffffffffffffffffffffff811015610de65781811015610dd7578281836040517ffb8f41b2000000000000000000000000000000000000000000000000000000008152600401610dce93929190612446565b60405180910390fd5b610de584848484035f6112b1565b5b50505050565b5f73ffffffffffffffffffffffffffffffffffffffff168373ffffffffffffffffffffffffffffffffffffffff1603610e5c575f6040517f96c6fd1e000000000000000000000000000000000000000000000000000000008152600401610e539190611f85565b60405180910390fd5b5f73ffffffffffffffffffffffffffffffffffffffff168273ffffffffffffffffffffffffffffffffffffffff1603610ecc575f6040517fec442f05000000000000000000000000000000000000000000000000000000008152600401610ec39190611f85565b60405180910390fd5b610ed7838383611480565b505050565b5f7f000000000000000000000000000000000000000000000000000000000000000073ffffffffffffffffffffffffffffffffffffffff163073ffffffffffffffffffffffffffffffffffffffff16148015610f5757507f000000000000000000000000000000000000000000000000000000000000000046145b15610f84577f00000000000000000000000000000000000000000000000000000000000000009050610f8f565b610f8c611699565b90505b90565b5f73ffffffffffffffffffffffffffffffffffffffff168273ffffffffffffffffffffffffffffffffffffffff1603611002575f6040517fec442f05000000000000000000000000000000000000000000000000000000008152600401610ff99190611f85565b60405180910390fd5b61100d5f8383611480565b5050565b611019610d40565b73ffffffffffffffffffffffffffffffffffffffff16611037610888565b73ffffffffffffffffffffffffffffffffffffffff16146110965761105a610d40565b6040517f118cdaa700000000000000000000000000000000000000000000000000000000815260040161108d9190611f85565b60405180910390fd5b565b5f60055f9054906101000a900473ffffffffffffffffffffffffffffffffffffffff1690508160055f6101000a81548173ffffffffffffffffffffffffffffffffffffffff021916908373ffffffffffffffffffffffffffffffffffffffff1602179055508173ffffffffffffffffffffffffffffffffffffffff168173ffffffffffffffffffffffffffffffffffffffff167f8be0079c531659141344cd1fd0a4f28419497f9722a3daafe3b4186f6b6457e060405160405180910390a35050565b5f60085f8373ffffffffffffffffffffffffffffffffffffffff1673ffffffffffffffffffffffffffffffffffffffff1681526020019081526020015f20549050919050565b60606111d760067f000000000000000000000000000000000000000000000000000000000000000061172e90919063ffffffff16565b905090565b606061121260077f000000000000000000000000000000000000000000000000000000000000000061172e90919063ffffffff16565b905090565b5f60085f8373ffffffffffffffffffffffffffffffffffffffff1673ffffffffffffffffffffffffffffffffffffffff1681526020019081526020015f205f815480929190600101919050559050919050565b5f61127c611276610edc565b836117db565b9050919050565b5f805f806112938888888861181b565b9250925092506112a38282611902565b829350505050949350505050565b5f73ffffffffffffffffffffffffffffffffffffffff168473ffffffffffffffffffffffffffffffffffffffff1603611321575f6040517fe602df050000000000000000000000000000000000000000000000000000000081526004016113189190611f85565b60405180910390fd5b5f73ffffffffffffffffffffffffffffffffffffffff168373ffffffffffffffffffffffffffffffffffffffff1603611391575f6040517f94280d620000000000000000000000000000000000000000000000000000000081526004016113889190611f85565b60405180910390fd5b8160015f8673ffffffffffffffffffffffffffffffffffffffff1673ffffffffffffffffffffffffffffffffffffffff1681526020019081526020015f205f8573ffffffffffffffffffffffffffffffffffffffff1673ffffffffffffffffffffffffffffffffffffffff1681526020019081526020015f2081905550801561147a578273ffffffffffffffffffffffffffffffffffffffff168473ffffffffffffffffffffffffffffffffffffffff167f8c5be1e5ebec7d5bd14f71427d1e84f3dd0314c0f7b2291e5b200ac8c7c3b925846040516114719190611cdf565b60405180910390a35b50505050565b5f73ffffffffffffffffffffffffffffffffffffffff168373ffffffffffffffffffffffffffffffffffffffff16036114d0578060025f8282546114c4919061238d565b9250508190555061159e565b5f805f8573ffffffffffffffffffffffffffffffffffffffff1673ffffffffffffffffffffffffffffffffffffffff1681526020019081526020015f2054905081811015611559578381836040517fe450d38c00000000000000000000000000000000000000000000000000000000815260040161155093929190612446565b60405180910390fd5b8181035f808673ffffffffffffffffffffffffffffffffffffffff1673ffffffffffffffffffffffffffffffffffffffff1681526020019081526020015f2081905550505b5f73ffffffffffffffffffffffffffffffffffffffff168273ffffffffffffffffffffffffffffffffffffffff16036115e5578060025f828254039250508190555061162f565b805f808473ffffffffffffffffffffffffffffffffffffffff1673ffffffffffffffffffffffffffffffffffffffff1681526020019081526020015f205f82825401925050819055505b8173ffffffffffffffffffffffffffffffffffffffff168373ffffffffffffffffffffffffffffffffffffffff167fddf252ad1be2c89b69c2b068fc378daa952ba7f163c4a11628f55a4df523b3ef8360405161168c9190611cdf565b60405180910390a3505050565b5f7f8b73c3c69bb8fe3d512ecc4cf759cc79239f7b179b0ffacaa9a75d522b39400f7f00000000000000000000000000000000000000000000000000000000000000007f0000000000000000000000000000000000000000000000000000000000000000463060405160200161171395949392919061247b565b60405160208183030381529060405280519060200120905090565b606060ff5f1b831461174a5761174383611a64565b90506117d5565b818054611756906120fa565b80601f0160208091040260200160405190810160405280929190818152602001828054611782906120fa565b80156117cd5780601f106117a4576101008083540402835291602001916117cd565b820191905f5260205f20905b8154815290600101906020018083116117b057829003601f168201915b505050505090505b92915050565b5f6040517f190100000000000000000000000000000000000000000000000000000000000081528360028201528260228201526042812091505092915050565b5f805f7f7fffffffffffffffffffffffffffffff5d576e7357a4501ddfe92f46681b20a0845f1c1115611857575f6003859250925092506118f8565b5f6001888888886040515f815260200160405260405161187a94939291906124cc565b6020604051602081039080840390855afa15801561189a573d5f803e3d5ffd5b5050506020604051035190505f73ffffffffffffffffffffffffffffffffffffffff168173ffffffffffffffffffffffffffffffffffffffff16036118eb575f60015f801b935093509350506118f8565b805f805f1b935093509350505b9450945094915050565b5f60038111156119155761191461250f565b5b8260038111156119285761192761250f565b5b0315611a6057600160038111156119425761194161250f565b5b8260038111156119555761195461250f565b5b0361198c576040517ff645eedf00000000000000000000000000000000000000000000000000000000815260040160405180910390fd5b600260038111156119a05761199f61250f565b5b8260038111156119b3576119b261250f565b5b036119f757805f1c6040517ffce698f70000000000000000000000000000000000000000000000000000000081526004016119ee9190611cdf565b60405180910390fd5b600380811115611a0a57611a0961250f565b5b826003811115611a1d57611a1c61250f565b5b03611a5f57806040517fd78bce0c000000000000000000000000000000000000000000000000000000008152600401611a569190611dbf565b60405180910390fd5b5b5050565b60605f611a7083611ad6565b90505f602067ffffffffffffffff811115611a8e57611a8d612360565b5b6040519080825280601f01601f191660200182016040528015611ac05781602001600182028036833780820191505090505b5090508181528360208201528092505050919050565b5f8060ff835f1c169050601f811115611b1b576040517fb3512b0c00000000000000000000000000000000000000000000000000000000815260040160405180910390fd5b80915050919050565b5f81519050919050565b5f82825260208201905092915050565b5f5b83811015611b5b578082015181840152602081019050611b40565b5f8484015250505050565b5f601f19601f8301169050919050565b5f611b8082611b24565b611b8a8185611b2e565b9350611b9a818560208601611b3e565b611ba381611b66565b840191505092915050565b5f6020820190508181035f830152611bc68184611b76565b905092915050565b5f80fd5b5f73ffffffffffffffffffffffffffffffffffffffff82169050919050565b5f611bfb82611bd2565b9050919050565b611c0b81611bf1565b8114611c15575f80fd5b50565b5f81359050611c2681611c02565b92915050565b5f819050919050565b611c3e81611c2c565b8114611c48575f80fd5b50565b5f81359050611c5981611c35565b92915050565b5f8060408385031215611c7557611c74611bce565b5b5f611c8285828601611c18565b9250506020611c9385828601611c4b565b9150509250929050565b5f8115159050919050565b611cb181611c9d565b82525050565b5f602082019050611cca5f830184611ca8565b92915050565b611cd981611c2c565b82525050565b5f602082019050611cf25f830184611cd0565b92915050565b5f805f60608486031215611d0f57611d0e611bce565b5b5f611d1c86828701611c18565b9350506020611d2d86828701611c18565b9250506040611d3e86828701611c4b565b9150509250925092565b5f60208284031215611d5d57611d5c611bce565b5b5f611d6a84828501611c4b565b91505092915050565b5f60ff82169050919050565b611d8881611d73565b82525050565b5f602082019050611da15f830184611d7f565b92915050565b5f819050919050565b611db981611da7565b82525050565b5f602082019050611dd25f830184611db0565b92915050565b5f60208284031215611ded57611dec611bce565b5b5f611dfa84828501611c18565b91505092915050565b5f7fff0000000000000000000000000000000000000000000000000000000000000082169050919050565b611e3781611e03565b82525050565b611e4681611bf1565b82525050565b5f81519050919050565b5f82825260208201905092915050565b5f819050602082019050919050565b611e7e81611c2c565b82525050565b5f611e8f8383611e75565b60208301905092915050565b5f602082019050919050565b5f611eb182611e4c565b611ebb8185611e56565b9350611ec683611e66565b805f5b83811015611ef6578151611edd8882611e84565b9750611ee883611e9b565b925050600181019050611ec9565b5085935050505092915050565b5f60e082019050611f165f83018a611e2e565b8181036020830152611f288189611b76565b90508181036040830152611f3c8188611b76565b9050611f4b6060830187611cd0565b611f586080830186611e3d565b611f6560a0830185611db0565b81810360c0830152611f778184611ea7565b905098975050505050505050565b5f602082019050611f985f830184611e3d565b92915050565b611fa781611d73565b8114611fb1575f80fd5b50565b5f81359050611fc281611f9e565b92915050565b611fd181611da7565b8114611fdb575f80fd5b50565b5f81359050611fec81611fc8565b92915050565b5f805f805f805f60e0888a03121561200d5761200c611bce565b5b5f61201a8a828b01611c18565b975050602061202b8a828b01611c18565b965050604061203c8a828b01611c4b565b955050606061204d8a828b01611c4b565b945050608061205e8a828b01611fb4565b93505060a061206f8a828b01611fde565b92505060c06120808a828b01611fde565b91505092959891949750929550565b5f80604083850312156120a5576120a4611bce565b5b5f6120b285828601611c18565b92505060206120c385828601611c18565b9150509250929050565b7f4e487b71000000000000000000000000000000000000000000000000000000005f52602260045260245ffd5b5f600282049050600182168061211157607f821691505b602082108103612124576121236120cd565b5b50919050565b7f416d6f756e74206973203c3d30000000000000000000000000000000000000005f82015250565b5f61215e600d83611b2e565b91506121698261212a565b602082019050919050565b5f6020820190508181035f83015261218b81612152565b9050919050565b7f4e6f7420456e6f7567682042616c616e636500000000000000000000000000005f82015250565b5f6121c6601283611b2e565b91506121d182612192565b602082019050919050565b5f6020820190508181035f8301526121f3816121ba565b9050919050565b7f4e487b71000000000000000000000000000000000000000000000000000000005f52601160045260245ffd5b5f61223182611c2c565b915061223c83611c2c565b9250828203905081811115612254576122536121fa565b5b92915050565b7f7374616b6564206973203c3d30000000000000000000000000000000000000005f82015250565b5f61228e600d83611b2e565b91506122998261225a565b602082019050919050565b5f6020820190508181035f8301526122bb81612282565b9050919050565b5f6122cc82611c2c565b91506122d783611c2c565b92508282026122e581611c2c565b915082820484148315176122fc576122fb6121fa565b5b5092915050565b7f4e487b71000000000000000000000000000000000000000000000000000000005f52601260045260245ffd5b5f61233a82611c2c565b915061234583611c2c565b92508261235557612354612303565b5b828204905092915050565b7f4e487b71000000000000000000000000000000000000000000000000000000005f52604160045260245ffd5b5f61239782611c2c565b91506123a283611c2c565b92508282019050808211156123ba576123b96121fa565b5b92915050565b5f60c0820190506123d35f830189611db0565b6123e06020830188611e3d565b6123ed6040830187611e3d565b6123fa6060830186611cd0565b6124076080830185611cd0565b61241460a0830184611cd0565b979650505050505050565b5f6040820190506124325f830185611e3d565b61243f6020830184611e3d565b9392505050565b5f6060820190506124595f830186611e3d565b6124666020830185611cd0565b6124736040830184611cd0565b949350505050565b5f60a08201905061248e5f830188611db0565b61249b6020830187611db0565b6124a86040830186611db0565b6124b56060830185611cd0565b6124c26080830184611e3d565b9695505050505050565b5f6080820190506124df5f830187611db0565b6124ec6020830186611d7f565b6124f96040830185611db0565b6125066060830184611db0565b95945050505050565b7f4e487b71000000000000000000000000000000000000000000000000000000005f52602160045260245ffdfea264697066735822122095244e085311318620da100438d205d1ef6cde935fa6eca0b217bc4345b6756164736f6c63430008140033",
  "immutableReferences": {
    "3178": [
      {
        "length": 32,
        "start": 3934
      }
    ],
    "3180": [
      {
        "length": 32,
        "start": 3893
      }
    ],
    "3182": [
      {
        "length": 32,
        "start": 3807
      }
    ],
    "3184": [
      {
        "length": 32,
        "start": 5821
      }
    ],
    "3186": [
      {
        "length": 32,
        "start": 5854
      }
    ],
    "3189": [
      {
        "length": 32,
        "start": 4522
      }
    ],
    "3192": [
      {
        "length": 32,
        "start": 4581
      }
    ]
  },
  "source": "// SPDX-License-Identifier: MIT\r\npragma solidity 0.8.20;\r\n\r\nimport {ERC20} from \"@openzeppelin/contracts/token/ERC20/ERC20.sol\";\r\nimport {ERC20Permit} from \"@openzeppelin/contracts/token/ERC20/extensions/ERC20Permit.sol\";\r\nimport {Ownable} from \"@openzeppelin/contracts/access/Ownable.sol\";\r\n\r\ncontract Token is ERC20, Ownable, ERC20Permit {\r\n\r\n    mapping(address => uint256) public staked;\r\n    mapping(address => uint256) private stakedFromTS;\r\n\r\n    constructor(address initialOwner, uint256 initialSupply, string memory name, string memory symbol)\r\n        ERC20(name, symbol)\r\n        Ownable(initialOwner)\r\n        ERC20Permit(\"Token\")\r\n    {\r\n        _mint(address(this), initialSupply * 10 ** decimals());\r\n    }\r\n\r\n    function stake(uint256 amount) external {\r\n        require(amount > 0,\"Amount is <=0\");\r\n        require(balanceOf(msg.sender)>= amount,\"Not Enough Balance\");\r\n\r\n        _transfer(msg.sender,address(this),amount);\r\n\r\n        if(staked[msg.sender]>0){\r\n            claim();\r\n        }\r\n\r\n        stakedFromTS[msg.sender] = block.timestamp;\r\n        staked[msg.sender] +=amount;\r\n    }\r\n\r\n    function unstake(uint256 amount) external{\r\n        require(amount>0, \"Amount is <=0\");\r\n        require(staked[msg.sender] >= amount,\"Not Enough Balance\");\r\n\r\n        claim();\r\n\r\n        staked[msg.sender] -= amount;\r\n\r\n        _transfer(address(this), msg.sender, amount);\r\n    }\r\n\r\n    function claim() public{\r\n        require(staked[msg.sender]>0,\"staked is <=0\");\r\n\r\n        uint256 secondsStaked = block.timestamp - stakedFromTS[msg.sender];\r\n        uint256 rewards = staked[msg.sender] * secondsStaked / 3.154e7;\r\n        _mint(msg.sender,rewards);\r\n        stakedFromTS[msg.sender] = block.timestamp;\r\n    }\r\n\r\n\r\n}\r\n",
  "sourcePath": "C:\\Users\\30697\\Desktop\\token-nest\\truffle\\contracts\\Token.sol",
  "compiler": {
    "name": "solc",
    "version": "0.8.20+commit.a1b79de6.Emscripten.clang"
  },
  "schemaVersion": "3.4.16",
  "updatedAt": "2025-01-20T18:54:47.112Z",
  "devdoc": {
    "errors": {
      "ECDSAInvalidSignature()": [
        {
          "details": "The signature derives the `address(0)`."
        }
      ],
      "ECDSAInvalidSignatureLength(uint256)": [
        {
          "details": "The signature has an invalid length."
        }
      ],
      "ECDSAInvalidSignatureS(bytes32)": [
        {
          "details": "The signature has an S value that is in the upper half order."
        }
      ],
      "ERC20InsufficientAllowance(address,uint256,uint256)": [
        {
          "details": "Indicates a failure with the `spender`s `allowance`. Used in transfers.",
          "params": {
            "allowance": "Amount of tokens a `spender` is allowed to operate with.",
            "needed": "Minimum amount required to perform a transfer.",
            "spender": "Address that may be allowed to operate on tokens without being their owner."
          }
        }
      ],
      "ERC20InsufficientBalance(address,uint256,uint256)": [
        {
          "details": "Indicates an error related to the current `balance` of a `sender`. Used in transfers.",
          "params": {
            "balance": "Current balance for the interacting account.",
            "needed": "Minimum amount required to perform a transfer.",
            "sender": "Address whose tokens are being transferred."
          }
        }
      ],
      "ERC20InvalidApprover(address)": [
        {
          "details": "Indicates a failure with the `approver` of a token to be approved. Used in approvals.",
          "params": {
            "approver": "Address initiating an approval operation."
          }
        }
      ],
      "ERC20InvalidReceiver(address)": [
        {
          "details": "Indicates a failure with the token `receiver`. Used in transfers.",
          "params": {
            "receiver": "Address to which tokens are being transferred."
          }
        }
      ],
      "ERC20InvalidSender(address)": [
        {
          "details": "Indicates a failure with the token `sender`. Used in transfers.",
          "params": {
            "sender": "Address whose tokens are being transferred."
          }
        }
      ],
      "ERC20InvalidSpender(address)": [
        {
          "details": "Indicates a failure with the `spender` to be approved. Used in approvals.",
          "params": {
            "spender": "Address that may be allowed to operate on tokens without being their owner."
          }
        }
      ],
      "ERC2612ExpiredSignature(uint256)": [
        {
          "details": "Permit deadline has expired."
        }
      ],
      "ERC2612InvalidSigner(address,address)": [
        {
          "details": "Mismatched signature."
        }
      ],
      "InvalidAccountNonce(address,uint256)": [
        {
          "details": "The nonce used for an `account` is not the expected current nonce."
        }
      ],
      "OwnableInvalidOwner(address)": [
        {
          "details": "The owner is not a valid owner account. (eg. `address(0)`)"
        }
      ],
      "OwnableUnauthorizedAccount(address)": [
        {
          "details": "The caller account is not authorized to perform an operation."
        }
      ]
    },
    "events": {
      "Approval(address,address,uint256)": {
        "details": "Emitted when the allowance of a `spender` for an `owner` is set by a call to {approve}. `value` is the new allowance."
      },
      "EIP712DomainChanged()": {
        "details": "MAY be emitted to signal that the domain could have changed."
      },
      "Transfer(address,address,uint256)": {
        "details": "Emitted when `value` tokens are moved from one account (`from`) to another (`to`). Note that `value` may be zero."
      }
    },
    "kind": "dev",
    "methods": {
      "DOMAIN_SEPARATOR()": {
        "details": "Returns the domain separator used in the encoding of the signature for {permit}, as defined by {EIP712}."
      },
      "allowance(address,address)": {
        "details": "See {IERC20-allowance}."
      },
      "approve(address,uint256)": {
        "details": "See {IERC20-approve}. NOTE: If `value` is the maximum `uint256`, the allowance is not updated on `transferFrom`. This is semantically equivalent to an infinite approval. Requirements: - `spender` cannot be the zero address."
      },
      "balanceOf(address)": {
        "details": "See {IERC20-balanceOf}."
      },
      "decimals()": {
        "details": "Returns the number of decimals used to get its user representation. For example, if `decimals` equals `2`, a balance of `505` tokens should be displayed to a user as `5.05` (`505 / 10 ** 2`). Tokens usually opt for a value of 18, imitating the relationship between Ether and Wei. This is the default value returned by this function, unless it's overridden. NOTE: This information is only used for _display_ purposes: it in no way affects any of the arithmetic of the contract, including {IERC20-balanceOf} and {IERC20-transfer}."
      },
      "eip712Domain()": {
        "details": "See {IERC-5267}."
      },
      "name()": {
        "details": "Returns the name of the token."
      },
      "nonces(address)": {
        "details": "Returns the current nonce for `owner`. This value must be included whenever a signature is generated for {permit}. Every successful call to {permit} increases ``owner``'s nonce by one. This prevents a signature from being used multiple times."
      },
      "owner()": {
        "details": "Returns the address of the current owner."
      },
      "permit(address,address,uint256,uint256,uint8,bytes32,bytes32)": {
        "details": "Sets `value` as the allowance of `spender` over ``owner``'s tokens, given ``owner``'s signed approval. IMPORTANT: The same issues {IERC20-approve} has related to transaction ordering also apply here. Emits an {Approval} event. Requirements: - `spender` cannot be the zero address. - `deadline` must be a timestamp in the future. - `v`, `r` and `s` must be a valid `secp256k1` signature from `owner` over the EIP712-formatted function arguments. - the signature must use ``owner``'s current nonce (see {nonces}). For more information on the signature format, see the https://eips.ethereum.org/EIPS/eip-2612#specification[relevant EIP section]. CAUTION: See Security Considerations above."
      },
      "renounceOwnership()": {
        "details": "Leaves the contract without owner. It will not be possible to call `onlyOwner` functions. Can only be called by the current owner. NOTE: Renouncing ownership will leave the contract without an owner, thereby disabling any functionality that is only available to the owner."
      },
      "symbol()": {
        "details": "Returns the symbol of the token, usually a shorter version of the name."
      },
      "totalSupply()": {
        "details": "See {IERC20-totalSupply}."
      },
      "transfer(address,uint256)": {
        "details": "See {IERC20-transfer}. Requirements: - `to` cannot be the zero address. - the caller must have a balance of at least `value`."
      },
      "transferFrom(address,address,uint256)": {
        "details": "See {IERC20-transferFrom}. Skips emitting an {Approval} event indicating an allowance update. This is not required by the ERC. See {xref-ERC20-_approve-address-address-uint256-bool-}[_approve]. NOTE: Does not update the allowance if the current allowance is the maximum `uint256`. Requirements: - `from` and `to` cannot be the zero address. - `from` must have a balance of at least `value`. - the caller must have allowance for ``from``'s tokens of at least `value`."
      },
      "transferOwnership(address)": {
        "details": "Transfers ownership of the contract to a new account (`newOwner`). Can only be called by the current owner."
      }
    },
    "version": 1
  },
  "userdoc": {
    "kind": "user",
    "methods": {},
    "version": 1
  }
}