{
  "contractName": "TokenFactory",
  "abi": [
    {
      "inputs": [],
      "stateMutability": "nonpayable",
      "type": "constructor"
    },
    {
      "anonymous": false,
      "inputs": [
        {
          "indexed": true,
          "internalType": "address",
          "name": "tokenAddress",
          "type": "address"
        },
        {
          "indexed": true,
          "internalType": "address",
          "name": "owner",
          "type": "address"
        },
        {
          "indexed": false,
          "internalType": "uint256",
          "name": "initialSupply",
          "type": "uint256"
        },
        {
          "indexed": false,
          "internalType": "string",
          "name": "name",
          "type": "string"
        },
        {
          "indexed": false,
          "internalType": "string",
          "name": "symbol",
          "type": "string"
        }
      ],
      "name": "TokenCreated",
      "type": "event"
    },
    {
      "inputs": [
        {
          "internalType": "address",
          "name": "initialOwner",
          "type": "address"
        },
        {
          "internalType": "uint256",
          "name": "initialSupply",
          "type": "uint256"
        },
        {
          "internalType": "string",
          "name": "name",
          "type": "string"
        },
        {
          "internalType": "string",
          "name": "symbol",
          "type": "string"
        }
      ],
      "name": "createToken",
      "outputs": [
        {
          "internalType": "address",
          "name": "",
          "type": "address"
        }
      ],
      "stateMutability": "nonpayable",
      "type": "function"
    }
  ],
  "bytecode": "0x6080604052348015600e575f5ffd5b50613e3a8061001c5f395ff3fe608060405234801561000f575f5ffd5b5060043610610029575f3560e01c80632b4b40171461002d575b5f5ffd5b610047600480360381019061004291906103c3565b61005d565b604051610054919061046e565b60405180910390f35b5f5f8585858560405161006f906101dc565b61007c94939291906104f6565b604051809103905ff080158015610095573d5f5f3e3d5ffd5b5090505f60405180606001604052808373ffffffffffffffffffffffffffffffffffffffff1681526020018681526020018581525090505f81908060018154018082558091505060019003905f5260205f2090600302015f909190919091505f820151815f015f6101000a81548173ffffffffffffffffffffffffffffffffffffffff021916908373ffffffffffffffffffffffffffffffffffffffff160217905550602082015181600101908161014d9190610744565b5060408201518160020190816101639190610744565b5050508673ffffffffffffffffffffffffffffffffffffffff168273ffffffffffffffffffffffffffffffffffffffff167f75c1f35492cd2bcb2820d5ff2434b9dc6d19432975f20761140109f0844a7b8a8888886040516101c793929190610813565b60405180910390a38192505050949350505050565b6135ae8061085783390190565b5f604051905090565b5f5ffd5b5f5ffd5b5f73ffffffffffffffffffffffffffffffffffffffff82169050919050565b5f610223826101fa565b9050919050565b61023381610219565b811461023d575f5ffd5b50565b5f8135905061024e8161022a565b92915050565b5f819050919050565b61026681610254565b8114610270575f5ffd5b50565b5f813590506102818161025d565b92915050565b5f5ffd5b5f5ffd5b5f601f19601f8301169050919050565b7f4e487b71000000000000000000000000000000000000000000000000000000005f52604160045260245ffd5b6102d58261028f565b810181811067ffffffffffffffff821117156102f4576102f361029f565b5b80604052505050565b5f6103066101e9565b905061031282826102cc565b919050565b5f67ffffffffffffffff8211156103315761033061029f565b5b61033a8261028f565b9050602081019050919050565b828183375f83830152505050565b5f61036761036284610317565b6102fd565b9050828152602081018484840111156103835761038261028b565b5b61038e848285610347565b509392505050565b5f82601f8301126103aa576103a9610287565b5b81356103ba848260208601610355565b91505092915050565b5f5f5f5f608085870312156103db576103da6101f2565b5b5f6103e887828801610240565b94505060206103f987828801610273565b935050604085013567ffffffffffffffff81111561041a576104196101f6565b5b61042687828801610396565b925050606085013567ffffffffffffffff811115610447576104466101f6565b5b61045387828801610396565b91505092959194509250565b61046881610219565b82525050565b5f6020820190506104815f83018461045f565b92915050565b61049081610254565b82525050565b5f81519050919050565b5f82825260208201905092915050565b8281835e5f83830152505050565b5f6104c882610496565b6104d281856104a0565b93506104e28185602086016104b0565b6104eb8161028f565b840191505092915050565b5f6080820190506105095f83018761045f565b6105166020830186610487565b818103604083015261052881856104be565b9050818103606083015261053c81846104be565b905095945050505050565b7f4e487b71000000000000000000000000000000000000000000000000000000005f52602260045260245ffd5b5f600282049050600182168061058b57607f821691505b60208210810361059e5761059d610547565b5b50919050565b5f819050815f5260205f209050919050565b5f6020601f8301049050919050565b5f82821b905092915050565b5f600883026106007fffffffffffffffffffffffffffffffffffffffffffffffffffffffffffffffff826105c5565b61060a86836105c5565b95508019841693508086168417925050509392505050565b5f819050919050565b5f61064561064061063b84610254565b610622565b610254565b9050919050565b5f819050919050565b61065e8361062b565b61067261066a8261064c565b8484546105d1565b825550505050565b5f5f905090565b61068961067a565b610694818484610655565b505050565b5b818110156106b7576106ac5f82610681565b60018101905061069a565b5050565b601f8211156106fc576106cd816105a4565b6106d6846105b6565b810160208510156106e5578190505b6106f96106f1856105b6565b830182610699565b50505b505050565b5f82821c905092915050565b5f61071c5f1984600802610701565b1980831691505092915050565b5f610734838361070d565b9150826002028217905092915050565b61074d82610496565b67ffffffffffffffff8111156107665761076561029f565b5b6107708254610574565b61077b8282856106bb565b5f60209050601f8311600181146107ac575f841561079a578287015190505b6107a48582610729565b86555061080b565b601f1984166107ba866105a4565b5f5b828110156107e1578489015182556001820191506020850194506020810190506107bc565b868310156107fe57848901516107fa601f89168261070d565b8355505b6001600288020188555050505b505050505050565b5f6060820190506108265f830186610487565b818103602083015261083881856104be565b9050818103604083015261084c81846104be565b905094935050505056fe610160604052348015610010575f5ffd5b506040516135ae3803806135ae83398181016040528101906100329190610884565b6040518060400160405280600581526020017f546f6b656e000000000000000000000000000000000000000000000000000000815250806040518060400160405280600181526020017f310000000000000000000000000000000000000000000000000000000000000081525086858581600390816100b19190610b27565b5080600490816100c19190610b27565b5050505f73ffffffffffffffffffffffffffffffffffffffff168173ffffffffffffffffffffffffffffffffffffffff1603610134575f6040517f1e4fbdf700000000000000000000000000000000000000000000000000000000815260040161012b9190610c05565b60405180910390fd5b6101438161022c60201b60201c565b506101586006836102ef60201b90919060201c565b61012081815250506101746007826102ef60201b90919060201c565b6101408181525050818051906020012060e08181525050808051906020012061010081815250504660a081815250506101b161033c60201b60201c565b608081815250503073ffffffffffffffffffffffffffffffffffffffff1660c08173ffffffffffffffffffffffffffffffffffffffff16815250505050506102233061020161039660201b60201c565b600a61020d9190610d86565b856102189190610dd0565b61039e60201b60201c565b50505050611005565b5f60055f9054906101000a900473ffffffffffffffffffffffffffffffffffffffff1690508160055f6101000a81548173ffffffffffffffffffffffffffffffffffffffff021916908373ffffffffffffffffffffffffffffffffffffffff1602179055508173ffffffffffffffffffffffffffffffffffffffff168173ffffffffffffffffffffffffffffffffffffffff167f8be0079c531659141344cd1fd0a4f28419497f9722a3daafe3b4186f6b6457e060405160405180910390a35050565b5f602083511015610310576103098361042360201b60201c565b9050610336565b826103208361048860201b60201c565b5f01908161032e9190610b27565b5060ff5f1b90505b92915050565b5f7f8b73c3c69bb8fe3d512ecc4cf759cc79239f7b179b0ffacaa9a75d522b39400f60e05161010051463060405160200161037b959493929190610e38565b60405160208183030381529060405280519060200120905090565b5f6012905090565b5f73ffffffffffffffffffffffffffffffffffffffff168273ffffffffffffffffffffffffffffffffffffffff160361040e575f6040517fec442f050000000000000000000000000000000000000000000000000000000081526004016104059190610c05565b60405180910390fd5b61041f5f838361049160201b60201c565b5050565b5f5f829050601f8151111561046f57826040517f305a27a90000000000000000000000000000000000000000000000000000000081526004016104669190610ed1565b60405180910390fd5b80518161047b90610f1e565b5f1c175f1b915050919050565b5f819050919050565b5f73ffffffffffffffffffffffffffffffffffffffff168373ffffffffffffffffffffffffffffffffffffffff16036104e1578060025f8282546104d59190610f84565b925050819055506105af565b5f5f5f8573ffffffffffffffffffffffffffffffffffffffff1673ffffffffffffffffffffffffffffffffffffffff1681526020019081526020015f205490508181101561056a578381836040517fe450d38c00000000000000000000000000000000000000000000000000000000815260040161056193929190610fb7565b60405180910390fd5b8181035f5f8673ffffffffffffffffffffffffffffffffffffffff1673ffffffffffffffffffffffffffffffffffffffff1681526020019081526020015f2081905550505b5f73ffffffffffffffffffffffffffffffffffffffff168273ffffffffffffffffffffffffffffffffffffffff16036105f6578060025f8282540392505081905550610640565b805f5f8473ffffffffffffffffffffffffffffffffffffffff1673ffffffffffffffffffffffffffffffffffffffff1681526020019081526020015f205f82825401925050819055505b8173ffffffffffffffffffffffffffffffffffffffff168373ffffffffffffffffffffffffffffffffffffffff167fddf252ad1be2c89b69c2b068fc378daa952ba7f163c4a11628f55a4df523b3ef8360405161069d9190610fec565b60405180910390a3505050565b5f604051905090565b5f5ffd5b5f5ffd5b5f73ffffffffffffffffffffffffffffffffffffffff82169050919050565b5f6106e4826106bb565b9050919050565b6106f4816106da565b81146106fe575f5ffd5b50565b5f8151905061070f816106eb565b92915050565b5f819050919050565b61072781610715565b8114610731575f5ffd5b50565b5f815190506107428161071e565b92915050565b5f5ffd5b5f5ffd5b5f601f19601f8301169050919050565b7f4e487b71000000000000000000000000000000000000000000000000000000005f52604160045260245ffd5b61079682610750565b810181811067ffffffffffffffff821117156107b5576107b4610760565b5b80604052505050565b5f6107c76106aa565b90506107d3828261078d565b919050565b5f67ffffffffffffffff8211156107f2576107f1610760565b5b6107fb82610750565b9050602081019050919050565b8281835e5f83830152505050565b5f610828610823846107d8565b6107be565b9050828152602081018484840111156108445761084361074c565b5b61084f848285610808565b509392505050565b5f82601f83011261086b5761086a610748565b5b815161087b848260208601610816565b91505092915050565b5f5f5f5f6080858703121561089c5761089b6106b3565b5b5f6108a987828801610701565b94505060206108ba87828801610734565b935050604085015167ffffffffffffffff8111156108db576108da6106b7565b5b6108e787828801610857565b925050606085015167ffffffffffffffff811115610908576109076106b7565b5b61091487828801610857565b91505092959194509250565b5f81519050919050565b7f4e487b71000000000000000000000000000000000000000000000000000000005f52602260045260245ffd5b5f600282049050600182168061096e57607f821691505b6020821081036109815761098061092a565b5b50919050565b5f819050815f5260205f209050919050565b5f6020601f8301049050919050565b5f82821b905092915050565b5f600883026109e37fffffffffffffffffffffffffffffffffffffffffffffffffffffffffffffffff826109a8565b6109ed86836109a8565b95508019841693508086168417925050509392505050565b5f819050919050565b5f610a28610a23610a1e84610715565b610a05565b610715565b9050919050565b5f819050919050565b610a4183610a0e565b610a55610a4d82610a2f565b8484546109b4565b825550505050565b5f5f905090565b610a6c610a5d565b610a77818484610a38565b505050565b5b81811015610a9a57610a8f5f82610a64565b600181019050610a7d565b5050565b601f821115610adf57610ab081610987565b610ab984610999565b81016020851015610ac8578190505b610adc610ad485610999565b830182610a7c565b50505b505050565b5f82821c905092915050565b5f610aff5f1984600802610ae4565b1980831691505092915050565b5f610b178383610af0565b9150826002028217905092915050565b610b3082610920565b67ffffffffffffffff811115610b4957610b48610760565b5b610b538254610957565b610b5e828285610a9e565b5f60209050601f831160018114610b8f575f8415610b7d578287015190505b610b878582610b0c565b865550610bee565b601f198416610b9d86610987565b5f5b82811015610bc457848901518255600182019150602085019450602081019050610b9f565b86831015610be15784890151610bdd601f891682610af0565b8355505b6001600288020188555050505b505050505050565b610bff816106da565b82525050565b5f602082019050610c185f830184610bf6565b92915050565b7f4e487b71000000000000000000000000000000000000000000000000000000005f52601160045260245ffd5b5f8160011c9050919050565b5f5f8291508390505b6001851115610ca057808604811115610c7c57610c7b610c1e565b5b6001851615610c8b5780820291505b8081029050610c9985610c4b565b9450610c60565b94509492505050565b5f82610cb85760019050610d73565b81610cc5575f9050610d73565b8160018114610cdb5760028114610ce557610d14565b6001915050610d73565b60ff841115610cf757610cf6610c1e565b5b8360020a915084821115610d0e57610d0d610c1e565b5b50610d73565b5060208310610133831016604e8410600b8410161715610d495782820a905083811115610d4457610d43610c1e565b5b610d73565b610d568484846001610c57565b92509050818404811115610d6d57610d6c610c1e565b5b81810290505b9392505050565b5f60ff82169050919050565b5f610d9082610715565b9150610d9b83610d7a565b9250610dc87fffffffffffffffffffffffffffffffffffffffffffffffffffffffffffffffff8484610ca9565b905092915050565b5f610dda82610715565b9150610de583610715565b9250828202610df381610715565b91508282048414831517610e0a57610e09610c1e565b5b5092915050565b5f819050919050565b610e2381610e11565b82525050565b610e3281610715565b82525050565b5f60a082019050610e4b5f830188610e1a565b610e586020830187610e1a565b610e656040830186610e1a565b610e726060830185610e29565b610e7f6080830184610bf6565b9695505050505050565b5f82825260208201905092915050565b5f610ea382610920565b610ead8185610e89565b9350610ebd818560208601610808565b610ec681610750565b840191505092915050565b5f6020820190508181035f830152610ee98184610e99565b905092915050565b5f81519050919050565b5f819050602082019050919050565b5f610f158251610e11565b80915050919050565b5f610f2882610ef1565b82610f3284610efb565b9050610f3d81610f0a565b92506020821015610f7d57610f787fffffffffffffffffffffffffffffffffffffffffffffffffffffffffffffffff836020036008026109a8565b831692505b5050919050565b5f610f8e82610715565b9150610f9983610715565b9250828201905080821115610fb157610fb0610c1e565b5b92915050565b5f606082019050610fca5f830186610bf6565b610fd76020830185610e29565b610fe46040830184610e29565b949350505050565b5f602082019050610fff5f830184610e29565b92915050565b60805160a05160c05160e0516101005161012051610140516125586110565f395f6111e501525f6111aa01525f6116de01525f6116bd01525f610edf01525f610f3501525f610f5e01526125585ff3fe608060405234801561000f575f5ffd5b506004361061012a575f3560e01c80637ecebe00116100ab578063a694fc3a1161006f578063a694fc3a14610326578063a9059cbb14610342578063d505accf14610372578063dd62ed3e1461038e578063f2fde38b146103be5761012a565b80637ecebe001461026657806384b0196e146102965780638da5cb5b146102ba57806395d89b41146102d857806398807d84146102f65761012a565b8063313ce567116100f2578063313ce567146101e65780633644e515146102045780634e71d92d1461022257806370a082311461022c578063715018a61461025c5761012a565b806306fdde031461012e578063095ea7b31461014c57806318160ddd1461017c57806323b872dd1461019a5780632e17de78146101ca575b5f5ffd5b6101366103da565b6040516101439190611b94565b60405180910390f35b61016660048036038101906101619190611c45565b61046a565b6040516101739190611c9d565b60405180910390f35b61018461048c565b6040516101919190611cc5565b60405180910390f35b6101b460048036038101906101af9190611cde565b610495565b6040516101c19190611c9d565b60405180910390f35b6101e460048036038101906101df9190611d2e565b6104c3565b005b6101ee6105ee565b6040516101fb9190611d74565b60405180910390f35b61020c6105f6565b6040516102199190611da5565b60405180910390f35b61022a610604565b005b61024660048036038101906102419190611dbe565b61077a565b6040516102539190611cc5565b60405180910390f35b6102646107bf565b005b610280600480360381019061027b9190611dbe565b6107d2565b60405161028d9190611cc5565b60405180910390f35b61029e6107e3565b6040516102b19796959493929190611ee9565b60405180910390f35b6102c2610888565b6040516102cf9190611f6b565b60405180910390f35b6102e06108b0565b6040516102ed9190611b94565b60405180910390f35b610310600480360381019061030b9190611dbe565b610940565b60405161031d9190611cc5565b60405180910390f35b610340600480360381019061033b9190611d2e565b610955565b005b61035c60048036038101906103579190611c45565b610ad3565b6040516103699190611c9d565b60405180910390f35b61038c60048036038101906103879190611fd8565b610af5565b005b6103a860048036038101906103a39190612075565b610c3a565b6040516103b59190611cc5565b60405180910390f35b6103d860048036038101906103d39190611dbe565b610cbc565b005b6060600380546103e9906120e0565b80601f0160208091040260200160405190810160405280929190818152602001828054610415906120e0565b80156104605780601f1061043757610100808354040283529160200191610460565b820191905f5260205f20905b81548152906001019060200180831161044357829003601f168201915b5050505050905090565b5f5f610474610d40565b9050610481818585610d47565b600191505092915050565b5f600254905090565b5f5f61049f610d40565b90506104ac858285610d59565b6104b7858585610dec565b60019150509392505050565b5f8111610505576040517f08c379a00000000000000000000000000000000000000000000000000000000081526004016104fc9061215a565b60405180910390fd5b8060095f3373ffffffffffffffffffffffffffffffffffffffff1673ffffffffffffffffffffffffffffffffffffffff1681526020019081526020015f20541015610585576040517f08c379a000000000000000000000000000000000000000000000000000000000815260040161057c906121c2565b60405180910390fd5b61058d610604565b8060095f3373ffffffffffffffffffffffffffffffffffffffff1673ffffffffffffffffffffffffffffffffffffffff1681526020019081526020015f205f8282546105d9919061220d565b925050819055506105eb303383610dec565b50565b5f6012905090565b5f6105ff610edc565b905090565b5f60095f3373ffffffffffffffffffffffffffffffffffffffff1673ffffffffffffffffffffffffffffffffffffffff1681526020019081526020015f205411610683576040517f08c379a000000000000000000000000000000000000000000000000000000000815260040161067a9061228a565b60405180910390fd5b5f600a5f3373ffffffffffffffffffffffffffffffffffffffff1673ffffffffffffffffffffffffffffffffffffffff1681526020019081526020015f2054426106cd919061220d565b90505f6301e143208260095f3373ffffffffffffffffffffffffffffffffffffffff1673ffffffffffffffffffffffffffffffffffffffff1681526020019081526020015f205461071e91906122a8565b6107289190612316565b90506107343382610f92565b42600a5f3373ffffffffffffffffffffffffffffffffffffffff1673ffffffffffffffffffffffffffffffffffffffff1681526020019081526020015f20819055505050565b5f5f5f8373ffffffffffffffffffffffffffffffffffffffff1673ffffffffffffffffffffffffffffffffffffffff1681526020019081526020015f20549050919050565b6107c7611011565b6107d05f611098565b565b5f6107dc8261115b565b9050919050565b5f6060805f5f5f60606107f46111a1565b6107fc6111dc565b46305f5f1b5f67ffffffffffffffff81111561081b5761081a612346565b5b6040519080825280602002602001820160405280156108495781602001602082028036833780820191505090505b507f0f00000000000000000000000000000000000000000000000000000000000000959493929190965096509650965096509650965090919293949596565b5f60055f9054906101000a900473ffffffffffffffffffffffffffffffffffffffff16905090565b6060600480546108bf906120e0565b80601f01602080910402602001604051908101604052809291908181526020018280546108eb906120e0565b80156109365780601f1061090d57610100808354040283529160200191610936565b820191905f5260205f20905b81548152906001019060200180831161091957829003601f168201915b5050505050905090565b6009602052805f5260405f205f915090505481565b5f8111610997576040517f08c379a000000000000000000000000000000000000000000000000000000000815260040161098e9061215a565b60405180910390fd5b806109a13361077a565b10156109e2576040517f08c379a00000000000000000000000000000000000000000000000000000000081526004016109d9906121c2565b60405180910390fd5b6109ed333083610dec565b5f60095f3373ffffffffffffffffffffffffffffffffffffffff1673ffffffffffffffffffffffffffffffffffffffff1681526020019081526020015f20541115610a3b57610a3a610604565b5b42600a5f3373ffffffffffffffffffffffffffffffffffffffff1673ffffffffffffffffffffffffffffffffffffffff1681526020019081526020015f20819055508060095f3373ffffffffffffffffffffffffffffffffffffffff1673ffffffffffffffffffffffffffffffffffffffff1681526020019081526020015f205f828254610ac99190612373565b9250508190555050565b5f5f610add610d40565b9050610aea818585610dec565b600191505092915050565b83421115610b3a57836040517f62791302000000000000000000000000000000000000000000000000000000008152600401610b319190611cc5565b60405180910390fd5b5f7f6e71edae12b1b97f4d1f60370fef10105fa2faae0126114a169c64845d6126c9888888610b688c611217565b89604051602001610b7e969594939291906123a6565b6040516020818303038152906040528051906020012090505f610ba08261126a565b90505f610baf82878787611283565b90508973ffffffffffffffffffffffffffffffffffffffff168173ffffffffffffffffffffffffffffffffffffffff1614610c2357808a6040517f4b800e46000000000000000000000000000000000000000000000000000000008152600401610c1a929190612405565b60405180910390fd5b610c2e8a8a8a610d47565b50505050505050505050565b5f60015f8473ffffffffffffffffffffffffffffffffffffffff1673ffffffffffffffffffffffffffffffffffffffff1681526020019081526020015f205f8373ffffffffffffffffffffffffffffffffffffffff1673ffffffffffffffffffffffffffffffffffffffff1681526020019081526020015f2054905092915050565b610cc4611011565b5f73ffffffffffffffffffffffffffffffffffffffff168173ffffffffffffffffffffffffffffffffffffffff1603610d34575f6040517f1e4fbdf7000000000000000000000000000000000000000000000000000000008152600401610d2b9190611f6b565b60405180910390fd5b610d3d81611098565b50565b5f33905090565b610d5483838360016112b1565b505050565b5f610d648484610c3a565b90507fffffffffffffffffffffffffffffffffffffffffffffffffffffffffffffffff811015610de65781811015610dd7578281836040517ffb8f41b2000000000000000000000000000000000000000000000000000000008152600401610dce9392919061242c565b60405180910390fd5b610de584848484035f6112b1565b5b50505050565b5f73ffffffffffffffffffffffffffffffffffffffff168373ffffffffffffffffffffffffffffffffffffffff1603610e5c575f6040517f96c6fd1e000000000000000000000000000000000000000000000000000000008152600401610e539190611f6b565b60405180910390fd5b5f73ffffffffffffffffffffffffffffffffffffffff168273ffffffffffffffffffffffffffffffffffffffff1603610ecc575f6040517fec442f05000000000000000000000000000000000000000000000000000000008152600401610ec39190611f6b565b60405180910390fd5b610ed7838383611480565b505050565b5f7f000000000000000000000000000000000000000000000000000000000000000073ffffffffffffffffffffffffffffffffffffffff163073ffffffffffffffffffffffffffffffffffffffff16148015610f5757507f000000000000000000000000000000000000000000000000000000000000000046145b15610f84577f00000000000000000000000000000000000000000000000000000000000000009050610f8f565b610f8c611699565b90505b90565b5f73ffffffffffffffffffffffffffffffffffffffff168273ffffffffffffffffffffffffffffffffffffffff1603611002575f6040517fec442f05000000000000000000000000000000000000000000000000000000008152600401610ff99190611f6b565b60405180910390fd5b61100d5f8383611480565b5050565b611019610d40565b73ffffffffffffffffffffffffffffffffffffffff16611037610888565b73ffffffffffffffffffffffffffffffffffffffff16146110965761105a610d40565b6040517f118cdaa700000000000000000000000000000000000000000000000000000000815260040161108d9190611f6b565b60405180910390fd5b565b5f60055f9054906101000a900473ffffffffffffffffffffffffffffffffffffffff1690508160055f6101000a81548173ffffffffffffffffffffffffffffffffffffffff021916908373ffffffffffffffffffffffffffffffffffffffff1602179055508173ffffffffffffffffffffffffffffffffffffffff168173ffffffffffffffffffffffffffffffffffffffff167f8be0079c531659141344cd1fd0a4f28419497f9722a3daafe3b4186f6b6457e060405160405180910390a35050565b5f60085f8373ffffffffffffffffffffffffffffffffffffffff1673ffffffffffffffffffffffffffffffffffffffff1681526020019081526020015f20549050919050565b60606111d760067f000000000000000000000000000000000000000000000000000000000000000061172e90919063ffffffff16565b905090565b606061121260077f000000000000000000000000000000000000000000000000000000000000000061172e90919063ffffffff16565b905090565b5f60085f8373ffffffffffffffffffffffffffffffffffffffff1673ffffffffffffffffffffffffffffffffffffffff1681526020019081526020015f205f815480929190600101919050559050919050565b5f61127c611276610edc565b836117db565b9050919050565b5f5f5f5f6112938888888861181b565b9250925092506112a38282611902565b829350505050949350505050565b5f73ffffffffffffffffffffffffffffffffffffffff168473ffffffffffffffffffffffffffffffffffffffff1603611321575f6040517fe602df050000000000000000000000000000000000000000000000000000000081526004016113189190611f6b565b60405180910390fd5b5f73ffffffffffffffffffffffffffffffffffffffff168373ffffffffffffffffffffffffffffffffffffffff1603611391575f6040517f94280d620000000000000000000000000000000000000000000000000000000081526004016113889190611f6b565b60405180910390fd5b8160015f8673ffffffffffffffffffffffffffffffffffffffff1673ffffffffffffffffffffffffffffffffffffffff1681526020019081526020015f205f8573ffffffffffffffffffffffffffffffffffffffff1673ffffffffffffffffffffffffffffffffffffffff1681526020019081526020015f2081905550801561147a578273ffffffffffffffffffffffffffffffffffffffff168473ffffffffffffffffffffffffffffffffffffffff167f8c5be1e5ebec7d5bd14f71427d1e84f3dd0314c0f7b2291e5b200ac8c7c3b925846040516114719190611cc5565b60405180910390a35b50505050565b5f73ffffffffffffffffffffffffffffffffffffffff168373ffffffffffffffffffffffffffffffffffffffff16036114d0578060025f8282546114c49190612373565b9250508190555061159e565b5f5f5f8573ffffffffffffffffffffffffffffffffffffffff1673ffffffffffffffffffffffffffffffffffffffff1681526020019081526020015f2054905081811015611559578381836040517fe450d38c0000000000000000000000000000000000000000000000000000000081526004016115509392919061242c565b60405180910390fd5b8181035f5f8673ffffffffffffffffffffffffffffffffffffffff1673ffffffffffffffffffffffffffffffffffffffff1681526020019081526020015f2081905550505b5f73ffffffffffffffffffffffffffffffffffffffff168273ffffffffffffffffffffffffffffffffffffffff16036115e5578060025f828254039250508190555061162f565b805f5f8473ffffffffffffffffffffffffffffffffffffffff1673ffffffffffffffffffffffffffffffffffffffff1681526020019081526020015f205f82825401925050819055505b8173ffffffffffffffffffffffffffffffffffffffff168373ffffffffffffffffffffffffffffffffffffffff167fddf252ad1be2c89b69c2b068fc378daa952ba7f163c4a11628f55a4df523b3ef8360405161168c9190611cc5565b60405180910390a3505050565b5f7f8b73c3c69bb8fe3d512ecc4cf759cc79239f7b179b0ffacaa9a75d522b39400f7f00000000000000000000000000000000000000000000000000000000000000007f00000000000000000000000000000000000000000000000000000000000000004630604051602001611713959493929190612461565b60405160208183030381529060405280519060200120905090565b606060ff5f1b831461174a5761174383611a64565b90506117d5565b818054611756906120e0565b80601f0160208091040260200160405190810160405280929190818152602001828054611782906120e0565b80156117cd5780601f106117a4576101008083540402835291602001916117cd565b820191905f5260205f20905b8154815290600101906020018083116117b057829003601f168201915b505050505090505b92915050565b5f6040517f190100000000000000000000000000000000000000000000000000000000000081528360028201528260228201526042812091505092915050565b5f5f5f7f7fffffffffffffffffffffffffffffff5d576e7357a4501ddfe92f46681b20a0845f1c1115611857575f6003859250925092506118f8565b5f6001888888886040515f815260200160405260405161187a94939291906124b2565b6020604051602081039080840390855afa15801561189a573d5f5f3e3d5ffd5b5050506020604051035190505f73ffffffffffffffffffffffffffffffffffffffff168173ffffffffffffffffffffffffffffffffffffffff16036118eb575f60015f5f1b935093509350506118f8565b805f5f5f1b935093509350505b9450945094915050565b5f6003811115611915576119146124f5565b5b826003811115611928576119276124f5565b5b0315611a605760016003811115611942576119416124f5565b5b826003811115611955576119546124f5565b5b0361198c576040517ff645eedf00000000000000000000000000000000000000000000000000000000815260040160405180910390fd5b600260038111156119a05761199f6124f5565b5b8260038111156119b3576119b26124f5565b5b036119f757805f1c6040517ffce698f70000000000000000000000000000000000000000000000000000000081526004016119ee9190611cc5565b60405180910390fd5b600380811115611a0a57611a096124f5565b5b826003811115611a1d57611a1c6124f5565b5b03611a5f57806040517fd78bce0c000000000000000000000000000000000000000000000000000000008152600401611a569190611da5565b60405180910390fd5b5b5050565b60605f611a7083611ad6565b90505f602067ffffffffffffffff811115611a8e57611a8d612346565b5b6040519080825280601f01601f191660200182016040528015611ac05781602001600182028036833780820191505090505b5090508181528360208201528092505050919050565b5f5f60ff835f1c169050601f811115611b1b576040517fb3512b0c00000000000000000000000000000000000000000000000000000000815260040160405180910390fd5b80915050919050565b5f81519050919050565b5f82825260208201905092915050565b8281835e5f83830152505050565b5f601f19601f8301169050919050565b5f611b6682611b24565b611b708185611b2e565b9350611b80818560208601611b3e565b611b8981611b4c565b840191505092915050565b5f6020820190508181035f830152611bac8184611b5c565b905092915050565b5f5ffd5b5f73ffffffffffffffffffffffffffffffffffffffff82169050919050565b5f611be182611bb8565b9050919050565b611bf181611bd7565b8114611bfb575f5ffd5b50565b5f81359050611c0c81611be8565b92915050565b5f819050919050565b611c2481611c12565b8114611c2e575f5ffd5b50565b5f81359050611c3f81611c1b565b92915050565b5f5f60408385031215611c5b57611c5a611bb4565b5b5f611c6885828601611bfe565b9250506020611c7985828601611c31565b9150509250929050565b5f8115159050919050565b611c9781611c83565b82525050565b5f602082019050611cb05f830184611c8e565b92915050565b611cbf81611c12565b82525050565b5f602082019050611cd85f830184611cb6565b92915050565b5f5f5f60608486031215611cf557611cf4611bb4565b5b5f611d0286828701611bfe565b9350506020611d1386828701611bfe565b9250506040611d2486828701611c31565b9150509250925092565b5f60208284031215611d4357611d42611bb4565b5b5f611d5084828501611c31565b91505092915050565b5f60ff82169050919050565b611d6e81611d59565b82525050565b5f602082019050611d875f830184611d65565b92915050565b5f819050919050565b611d9f81611d8d565b82525050565b5f602082019050611db85f830184611d96565b92915050565b5f60208284031215611dd357611dd2611bb4565b5b5f611de084828501611bfe565b91505092915050565b5f7fff0000000000000000000000000000000000000000000000000000000000000082169050919050565b611e1d81611de9565b82525050565b611e2c81611bd7565b82525050565b5f81519050919050565b5f82825260208201905092915050565b5f819050602082019050919050565b611e6481611c12565b82525050565b5f611e758383611e5b565b60208301905092915050565b5f602082019050919050565b5f611e9782611e32565b611ea18185611e3c565b9350611eac83611e4c565b805f5b83811015611edc578151611ec38882611e6a565b9750611ece83611e81565b925050600181019050611eaf565b5085935050505092915050565b5f60e082019050611efc5f83018a611e14565b8181036020830152611f0e8189611b5c565b90508181036040830152611f228188611b5c565b9050611f316060830187611cb6565b611f3e6080830186611e23565b611f4b60a0830185611d96565b81810360c0830152611f5d8184611e8d565b905098975050505050505050565b5f602082019050611f7e5f830184611e23565b92915050565b611f8d81611d59565b8114611f97575f5ffd5b50565b5f81359050611fa881611f84565b92915050565b611fb781611d8d565b8114611fc1575f5ffd5b50565b5f81359050611fd281611fae565b92915050565b5f5f5f5f5f5f5f60e0888a031215611ff357611ff2611bb4565b5b5f6120008a828b01611bfe565b97505060206120118a828b01611bfe565b96505060406120228a828b01611c31565b95505060606120338a828b01611c31565b94505060806120448a828b01611f9a565b93505060a06120558a828b01611fc4565b92505060c06120668a828b01611fc4565b91505092959891949750929550565b5f5f6040838503121561208b5761208a611bb4565b5b5f61209885828601611bfe565b92505060206120a985828601611bfe565b9150509250929050565b7f4e487b71000000000000000000000000000000000000000000000000000000005f52602260045260245ffd5b5f60028204905060018216806120f757607f821691505b60208210810361210a576121096120b3565b5b50919050565b7f416d6f756e74206973203c3d30000000000000000000000000000000000000005f82015250565b5f612144600d83611b2e565b915061214f82612110565b602082019050919050565b5f6020820190508181035f83015261217181612138565b9050919050565b7f4e6f7420456e6f7567682042616c616e636500000000000000000000000000005f82015250565b5f6121ac601283611b2e565b91506121b782612178565b602082019050919050565b5f6020820190508181035f8301526121d9816121a0565b9050919050565b7f4e487b71000000000000000000000000000000000000000000000000000000005f52601160045260245ffd5b5f61221782611c12565b915061222283611c12565b925082820390508181111561223a576122396121e0565b5b92915050565b7f7374616b6564206973203c3d30000000000000000000000000000000000000005f82015250565b5f612274600d83611b2e565b915061227f82612240565b602082019050919050565b5f6020820190508181035f8301526122a181612268565b9050919050565b5f6122b282611c12565b91506122bd83611c12565b92508282026122cb81611c12565b915082820484148315176122e2576122e16121e0565b5b5092915050565b7f4e487b71000000000000000000000000000000000000000000000000000000005f52601260045260245ffd5b5f61232082611c12565b915061232b83611c12565b92508261233b5761233a6122e9565b5b828204905092915050565b7f4e487b71000000000000000000000000000000000000000000000000000000005f52604160045260245ffd5b5f61237d82611c12565b915061238883611c12565b92508282019050808211156123a05761239f6121e0565b5b92915050565b5f60c0820190506123b95f830189611d96565b6123c66020830188611e23565b6123d36040830187611e23565b6123e06060830186611cb6565b6123ed6080830185611cb6565b6123fa60a0830184611cb6565b979650505050505050565b5f6040820190506124185f830185611e23565b6124256020830184611e23565b9392505050565b5f60608201905061243f5f830186611e23565b61244c6020830185611cb6565b6124596040830184611cb6565b949350505050565b5f60a0820190506124745f830188611d96565b6124816020830187611d96565b61248e6040830186611d96565b61249b6060830185611cb6565b6124a86080830184611e23565b9695505050505050565b5f6080820190506124c55f830187611d96565b6124d26020830186611d65565b6124df6040830185611d96565b6124ec6060830184611d96565b95945050505050565b7f4e487b71000000000000000000000000000000000000000000000000000000005f52602160045260245ffdfea264697066735822122007db7dafcca2bdc854b595a44ad40dda9cb29f1a79d0685f8c76d847923bacd664736f6c634300081c0033a2646970667358221220007f0cca1bc3aea9592277759e6cf3de1be16a8a412f29a44d3d50d22a6890da64736f6c634300081c0033",
  "immutableReferences": {},
  "source": "// SPDX-License-Identifier: MIT\r\npragma solidity ^0.8.20;\r\n\r\nimport \"./Token.sol\";\r\n\r\ncontract TokenFactory {\r\n    event TokenCreated(address indexed tokenAddress, address indexed owner, uint256 initialSupply,string name,string symbol);\r\n\r\n    struct TokenStruct{\r\n        address tokenAddress;\r\n        string name; \r\n        string symbol;\r\n    }\r\n\r\n    TokenStruct[] tokens;\r\n\r\n    constructor(){}\r\n\r\n    function createToken(address initialOwner, uint256 initialSupply, string memory name, string memory symbol) public returns (address) {\r\n    \r\n        Token newToken = new Token(initialOwner, initialSupply, name, symbol);\r\n\r\n        TokenStruct memory token = TokenStruct({\r\n            tokenAddress: address(newToken),\r\n            name: name,\r\n            symbol: symbol\r\n        });\r\n\r\n        tokens.push(token);\r\n\r\n        emit TokenCreated(address(newToken), initialOwner, initialSupply,name,symbol);\r\n        \r\n        return address(newToken);\r\n        \r\n }\r\n}",
  "sourcePath": "C:\\Users\\30697\\Desktop\\token-nest\\truffle\\contracts\\TokenFactory.sol",
  "compiler": {
    "name": "solc",
    "version": "0.8.28+commit.7893614a.Emscripten.clang"
  },
  "schemaVersion": "3.4.16",
  "updatedAt": "2025-01-22T16:18:24.036Z",
  "devdoc": {
    "kind": "dev",
    "methods": {},
    "version": 1
  },
  "userdoc": {
    "kind": "user",
    "methods": {},
    "version": 1
  }
}